{
  "_format": "hh-sol-artifact-1",
  "contractName": "ERC721Token",
  "sourceName": "contracts/ERC721Token.sol",
  "abi": [
    {
      "inputs": [],
      "stateMutability": "nonpayable",
      "type": "constructor"
    },
    {
      "inputs": [
        {
          "internalType": "address",
          "name": "sender",
          "type": "address"
        },
        {
          "internalType": "uint256",
          "name": "tokenId",
          "type": "uint256"
        },
        {
          "internalType": "address",
          "name": "owner",
          "type": "address"
        }
      ],
      "name": "ERC721IncorrectOwner",
      "type": "error"
    },
    {
      "inputs": [
        {
          "internalType": "address",
          "name": "operator",
          "type": "address"
        },
        {
          "internalType": "uint256",
          "name": "tokenId",
          "type": "uint256"
        }
      ],
      "name": "ERC721InsufficientApproval",
      "type": "error"
    },
    {
      "inputs": [
        {
          "internalType": "address",
          "name": "approver",
          "type": "address"
        }
      ],
      "name": "ERC721InvalidApprover",
      "type": "error"
    },
    {
      "inputs": [
        {
          "internalType": "address",
          "name": "operator",
          "type": "address"
        }
      ],
      "name": "ERC721InvalidOperator",
      "type": "error"
    },
    {
      "inputs": [
        {
          "internalType": "address",
          "name": "owner",
          "type": "address"
        }
      ],
      "name": "ERC721InvalidOwner",
      "type": "error"
    },
    {
      "inputs": [
        {
          "internalType": "address",
          "name": "receiver",
          "type": "address"
        }
      ],
      "name": "ERC721InvalidReceiver",
      "type": "error"
    },
    {
      "inputs": [
        {
          "internalType": "address",
          "name": "sender",
          "type": "address"
        }
      ],
      "name": "ERC721InvalidSender",
      "type": "error"
    },
    {
      "inputs": [
        {
          "internalType": "uint256",
          "name": "tokenId",
          "type": "uint256"
        }
      ],
      "name": "ERC721NonexistentToken",
      "type": "error"
    },
    {
      "inputs": [
        {
          "internalType": "address",
          "name": "owner",
          "type": "address"
        }
      ],
      "name": "OwnableInvalidOwner",
      "type": "error"
    },
    {
      "inputs": [
        {
          "internalType": "address",
          "name": "account",
          "type": "address"
        }
      ],
      "name": "OwnableUnauthorizedAccount",
      "type": "error"
    },
    {
      "anonymous": false,
      "inputs": [
        {
          "indexed": true,
          "internalType": "address",
          "name": "owner",
          "type": "address"
        },
        {
          "indexed": true,
          "internalType": "address",
          "name": "approved",
          "type": "address"
        },
        {
          "indexed": true,
          "internalType": "uint256",
          "name": "tokenId",
          "type": "uint256"
        }
      ],
      "name": "Approval",
      "type": "event"
    },
    {
      "anonymous": false,
      "inputs": [
        {
          "indexed": true,
          "internalType": "address",
          "name": "owner",
          "type": "address"
        },
        {
          "indexed": true,
          "internalType": "address",
          "name": "operator",
          "type": "address"
        },
        {
          "indexed": false,
          "internalType": "bool",
          "name": "approved",
          "type": "bool"
        }
      ],
      "name": "ApprovalForAll",
      "type": "event"
    },
    {
      "anonymous": false,
      "inputs": [
        {
          "indexed": true,
          "internalType": "address",
          "name": "previousOwner",
          "type": "address"
        },
        {
          "indexed": true,
          "internalType": "address",
          "name": "newOwner",
          "type": "address"
        }
      ],
      "name": "OwnershipTransferred",
      "type": "event"
    },
    {
      "anonymous": false,
      "inputs": [
        {
          "indexed": true,
          "internalType": "address",
          "name": "from",
          "type": "address"
        },
        {
          "indexed": true,
          "internalType": "address",
          "name": "to",
          "type": "address"
        },
        {
          "indexed": true,
          "internalType": "uint256",
          "name": "tokenId",
          "type": "uint256"
        }
      ],
      "name": "Transfer",
      "type": "event"
    },
    {
      "inputs": [
        {
          "internalType": "address",
          "name": "to",
          "type": "address"
        },
        {
          "internalType": "uint256",
          "name": "tokenId",
          "type": "uint256"
        }
      ],
      "name": "approve",
      "outputs": [],
      "stateMutability": "nonpayable",
      "type": "function"
    },
    {
      "inputs": [
        {
          "internalType": "address",
          "name": "operator",
          "type": "address"
        }
      ],
      "name": "approveForAll",
      "outputs": [],
      "stateMutability": "nonpayable",
      "type": "function"
    },
    {
      "inputs": [
        {
          "internalType": "address",
          "name": "operator",
          "type": "address"
        }
      ],
      "name": "approveForMint",
      "outputs": [],
      "stateMutability": "nonpayable",
      "type": "function"
    },
    {
      "inputs": [
        {
          "internalType": "address",
          "name": "owner",
          "type": "address"
        }
      ],
      "name": "balanceOf",
      "outputs": [
        {
          "internalType": "uint256",
          "name": "",
          "type": "uint256"
        }
      ],
      "stateMutability": "view",
      "type": "function"
    },
    {
      "inputs": [
        {
          "internalType": "address",
          "name": "from",
          "type": "address"
        },
        {
          "internalType": "uint256",
          "name": "tokenId",
          "type": "uint256"
        }
      ],
      "name": "deposit",
      "outputs": [],
      "stateMutability": "nonpayable",
      "type": "function"
    },
    {
      "inputs": [
        {
          "internalType": "uint256",
          "name": "tokenId",
          "type": "uint256"
        }
      ],
      "name": "getApproved",
      "outputs": [
        {
          "internalType": "address",
          "name": "",
          "type": "address"
        }
      ],
      "stateMutability": "view",
      "type": "function"
    },
    {
      "inputs": [
        {
          "internalType": "address",
          "name": "owner",
          "type": "address"
        },
        {
          "internalType": "address",
          "name": "operator",
          "type": "address"
        }
      ],
      "name": "isApprovedForAll",
      "outputs": [
        {
          "internalType": "bool",
          "name": "",
          "type": "bool"
        }
      ],
      "stateMutability": "view",
      "type": "function"
    },
    {
      "inputs": [
        {
          "internalType": "address",
          "name": "to",
          "type": "address"
        },
        {
          "internalType": "uint256",
          "name": "tokenId",
          "type": "uint256"
        }
      ],
      "name": "mint",
      "outputs": [],
      "stateMutability": "nonpayable",
      "type": "function"
    },
    {
      "inputs": [],
      "name": "name",
      "outputs": [
        {
          "internalType": "string",
          "name": "",
          "type": "string"
        }
      ],
      "stateMutability": "view",
      "type": "function"
    },
    {
      "inputs": [],
      "name": "owner",
      "outputs": [
        {
          "internalType": "address",
          "name": "",
          "type": "address"
        }
      ],
      "stateMutability": "view",
      "type": "function"
    },
    {
      "inputs": [
        {
          "internalType": "uint256",
          "name": "tokenId",
          "type": "uint256"
        }
      ],
      "name": "ownerOf",
      "outputs": [
        {
          "internalType": "address",
          "name": "",
          "type": "address"
        }
      ],
      "stateMutability": "view",
      "type": "function"
    },
    {
      "inputs": [],
      "name": "renounceOwnership",
      "outputs": [],
      "stateMutability": "nonpayable",
      "type": "function"
    },
    {
      "inputs": [
        {
          "internalType": "address",
          "name": "from",
          "type": "address"
        },
        {
          "internalType": "address",
          "name": "to",
          "type": "address"
        },
        {
          "internalType": "uint256",
          "name": "tokenId",
          "type": "uint256"
        }
      ],
      "name": "safeTransferFrom",
      "outputs": [],
      "stateMutability": "nonpayable",
      "type": "function"
    },
    {
      "inputs": [
        {
          "internalType": "address",
          "name": "from",
          "type": "address"
        },
        {
          "internalType": "address",
          "name": "to",
          "type": "address"
        },
        {
          "internalType": "uint256",
          "name": "tokenId",
          "type": "uint256"
        },
        {
          "internalType": "bytes",
          "name": "data",
          "type": "bytes"
        }
      ],
      "name": "safeTransferFrom",
      "outputs": [],
      "stateMutability": "nonpayable",
      "type": "function"
    },
    {
      "inputs": [
        {
          "internalType": "address",
          "name": "operator",
          "type": "address"
        },
        {
          "internalType": "bool",
          "name": "approved",
          "type": "bool"
        }
      ],
      "name": "setApprovalForAll",
      "outputs": [],
      "stateMutability": "nonpayable",
      "type": "function"
    },
    {
      "inputs": [
        {
          "internalType": "bytes4",
          "name": "interfaceId",
          "type": "bytes4"
        }
      ],
      "name": "supportsInterface",
      "outputs": [
        {
          "internalType": "bool",
          "name": "",
          "type": "bool"
        }
      ],
      "stateMutability": "view",
      "type": "function"
    },
    {
      "inputs": [],
      "name": "symbol",
      "outputs": [
        {
          "internalType": "string",
          "name": "",
          "type": "string"
        }
      ],
      "stateMutability": "view",
      "type": "function"
    },
    {
      "inputs": [
        {
          "internalType": "uint256",
          "name": "tokenId",
          "type": "uint256"
        }
      ],
      "name": "tokenURI",
      "outputs": [
        {
          "internalType": "string",
          "name": "",
          "type": "string"
        }
      ],
      "stateMutability": "view",
      "type": "function"
    },
    {
      "inputs": [],
      "name": "totalSupply",
      "outputs": [
        {
          "internalType": "uint256",
          "name": "",
          "type": "uint256"
        }
      ],
      "stateMutability": "view",
      "type": "function"
    },
    {
      "inputs": [
        {
          "internalType": "address",
          "name": "from",
          "type": "address"
        },
        {
          "internalType": "address",
          "name": "to",
          "type": "address"
        },
        {
          "internalType": "uint256",
          "name": "tokenId",
          "type": "uint256"
        }
      ],
      "name": "transferFrom",
      "outputs": [],
      "stateMutability": "nonpayable",
      "type": "function"
    },
    {
      "inputs": [
        {
          "internalType": "address",
          "name": "newOwner",
          "type": "address"
        }
      ],
      "name": "transferOwnership",
      "outputs": [],
      "stateMutability": "nonpayable",
      "type": "function"
    },
    {
      "inputs": [
        {
          "internalType": "address",
          "name": "to",
          "type": "address"
        },
        {
          "internalType": "uint256",
          "name": "tokenId",
          "type": "uint256"
        }
      ],
      "name": "withdraw",
      "outputs": [],
      "stateMutability": "nonpayable",
      "type": "function"
    }
  ],
  "bytecode": "0x60806040523480156200001157600080fd5b50336040518060400160405280600b81526020017f455243373231546f6b656e0000000000000000000000000000000000000000008152506040518060400160405280600681526020017f455243373231000000000000000000000000000000000000000000000000000081525081600090816200009091906200047a565b508060019081620000a291906200047a565b505050600073ffffffffffffffffffffffffffffffffffffffff168173ffffffffffffffffffffffffffffffffffffffff16036200011a5760006040517f1e4fbdf7000000000000000000000000000000000000000000000000000000008152600401620001119190620005a6565b60405180910390fd5b6200012b816200013a60201b60201c565b506000600781905550620005c3565b6000600660009054906101000a900473ffffffffffffffffffffffffffffffffffffffff16905081600660006101000a81548173ffffffffffffffffffffffffffffffffffffffff021916908373ffffffffffffffffffffffffffffffffffffffff1602179055508173ffffffffffffffffffffffffffffffffffffffff168173ffffffffffffffffffffffffffffffffffffffff167f8be0079c531659141344cd1fd0a4f28419497f9722a3daafe3b4186f6b6457e060405160405180910390a35050565b600081519050919050565b7f4e487b7100000000000000000000000000000000000000000000000000000000600052604160045260246000fd5b7f4e487b7100000000000000000000000000000000000000000000000000000000600052602260045260246000fd5b600060028204905060018216806200028257607f821691505b6020821081036200029857620002976200023a565b5b50919050565b60008190508160005260206000209050919050565b60006020601f8301049050919050565b600082821b905092915050565b600060088302620003027fffffffffffffffffffffffffffffffffffffffffffffffffffffffffffffffff82620002c3565b6200030e8683620002c3565b95508019841693508086168417925050509392505050565b6000819050919050565b6000819050919050565b60006200035b620003556200034f8462000326565b62000330565b62000326565b9050919050565b6000819050919050565b62000377836200033a565b6200038f620003868262000362565b848454620002d0565b825550505050565b600090565b620003a662000397565b620003b38184846200036c565b505050565b5b81811015620003db57620003cf6000826200039c565b600181019050620003b9565b5050565b601f8211156200042a57620003f4816200029e565b620003ff84620002b3565b810160208510156200040f578190505b620004276200041e85620002b3565b830182620003b8565b50505b505050565b600082821c905092915050565b60006200044f600019846008026200042f565b1980831691505092915050565b60006200046a83836200043c565b9150826002028217905092915050565b620004858262000200565b67ffffffffffffffff811115620004a157620004a06200020b565b5b620004ad825462000269565b620004ba828285620003df565b600060209050601f831160018114620004f25760008415620004dd578287015190505b620004e985826200045c565b86555062000559565b601f19841662000502866200029e565b60005b828110156200052c5784890151825560018201915060208501945060208101905062000505565b868310156200054c578489015162000548601f8916826200043c565b8355505b6001600288020188555050505b505050505050565b600073ffffffffffffffffffffffffffffffffffffffff82169050919050565b60006200058e8262000561565b9050919050565b620005a08162000581565b82525050565b6000602082019050620005bd600083018462000595565b92915050565b61284380620005d36000396000f3fe608060405234801561001057600080fd5b50600436106101425760003560e01c8063715018a6116100b8578063b88d4fde1161007c578063b88d4fde1461034d578063c64c39a914610369578063c87b56dd14610385578063e985e9c5146103b5578063f2fde38b146103e5578063f3fef3a31461040157610142565b8063715018a6146102cf5780637ef5cc11146102d95780638da5cb5b146102f557806395d89b4114610313578063a22cb4651461033157610142565b806323b872dd1161010a57806323b872dd146101ff57806340c10f191461021b57806342842e0e1461023757806347e7ef24146102535780636352211e1461026f57806370a082311461029f57610142565b806301ffc9a71461014757806306fdde0314610177578063081812fc14610195578063095ea7b3146101c557806318160ddd146101e1575b600080fd5b610161600480360381019061015c9190611e4d565b61041d565b60405161016e9190611e95565b60405180910390f35b61017f6104ff565b60405161018c9190611f40565b60405180910390f35b6101af60048036038101906101aa9190611f98565b610591565b6040516101bc9190612006565b60405180910390f35b6101df60048036038101906101da919061204d565b6105ad565b005b6101e96105c3565b6040516101f6919061209c565b60405180910390f35b610219600480360381019061021491906120b7565b6105cd565b005b6102356004803603810190610230919061204d565b6106cf565b005b610251600480360381019061024c91906120b7565b610781565b005b61026d6004803603810190610268919061204d565b6107a1565b005b61028960048036038101906102849190611f98565b6108b2565b6040516102969190612006565b60405180910390f35b6102b960048036038101906102b4919061210a565b6108c4565b6040516102c6919061209c565b60405180910390f35b6102d761097e565b005b6102f360048036038101906102ee919061210a565b610992565b005b6102fd6109f5565b60405161030a9190612006565b60405180910390f35b61031b610a1f565b6040516103289190611f40565b60405180910390f35b61034b60048036038101906103469190612163565b610ab1565b005b610367600480360381019061036291906122d8565b610ac7565b005b610383600480360381019061037e919061210a565b610ae4565b005b61039f600480360381019061039a9190611f98565b610af2565b6040516103ac9190611f40565b60405180910390f35b6103cf60048036038101906103ca919061235b565b610b5b565b6040516103dc9190611e95565b60405180910390f35b6103ff60048036038101906103fa919061210a565b610bef565b005b61041b6004803603810190610416919061204d565b610c75565b005b60007f80ac58cd000000000000000000000000000000000000000000000000000000007bffffffffffffffffffffffffffffffffffffffffffffffffffffffff1916827bffffffffffffffffffffffffffffffffffffffffffffffffffffffff191614806104e857507f5b5e139f000000000000000000000000000000000000000000000000000000007bffffffffffffffffffffffffffffffffffffffffffffffffffffffff1916827bffffffffffffffffffffffffffffffffffffffffffffffffffffffff1916145b806104f857506104f782610cfa565b5b9050919050565b60606000805461050e906123ca565b80601f016020809104026020016040519081016040528092919081815260200182805461053a906123ca565b80156105875780601f1061055c57610100808354040283529160200191610587565b820191906000526020600020905b81548152906001019060200180831161056a57829003601f168201915b5050505050905090565b600061059c82610d64565b506105a682610dec565b9050919050565b6105bf82826105ba610e29565b610e31565b5050565b6000600754905090565b600073ffffffffffffffffffffffffffffffffffffffff168273ffffffffffffffffffffffffffffffffffffffff160361063f5760006040517f64a0ae920000000000000000000000000000000000000000000000000000000081526004016106369190612006565b60405180910390fd5b6000610653838361064e610e29565b610e43565b90508373ffffffffffffffffffffffffffffffffffffffff168173ffffffffffffffffffffffffffffffffffffffff16146106c9578382826040517f64283d7b0000000000000000000000000000000000000000000000000000000081526004016106c0939291906123fb565b60405180910390fd5b50505050565b600860003373ffffffffffffffffffffffffffffffffffffffff1673ffffffffffffffffffffffffffffffffffffffff16815260200190815260200160002060009054906101000a900460ff1661075b576040517f08c379a00000000000000000000000000000000000000000000000000000000081526004016107529061247e565b60405180910390fd5b610765828261105d565b60076000815480929190610778906124cd565b91905055505050565b61079c83838360405180602001604052806000815250610ac7565b505050565b6107e06040518060400160405280600681526020017f66726f6d3a20000000000000000000000000000000000000000000000000000081525083611156565b61081f6040518060400160405280600c81526020017f6d73672e73656e6465723a20000000000000000000000000000000000000000081525033611156565b600061082a826108b2565b90503373ffffffffffffffffffffffffffffffffffffffff1661084c83610591565b73ffffffffffffffffffffffffffffffffffffffff16146108a2576040517f08c379a000000000000000000000000000000000000000000000000000000000815260040161089990612561565b60405180910390fd5b6108ad8184846105cd565b505050565b60006108bd82610d64565b9050919050565b60008073ffffffffffffffffffffffffffffffffffffffff168273ffffffffffffffffffffffffffffffffffffffff16036109375760006040517f89c62b6400000000000000000000000000000000000000000000000000000000815260040161092e9190612006565b60405180910390fd5b600360008373ffffffffffffffffffffffffffffffffffffffff1673ffffffffffffffffffffffffffffffffffffffff168152602001908152602001600020549050919050565b6109866111f2565b6109906000611279565b565b61099a6111f2565b6001600860008373ffffffffffffffffffffffffffffffffffffffff1673ffffffffffffffffffffffffffffffffffffffff16815260200190815260200160002060006101000a81548160ff02191690831515021790555050565b6000600660009054906101000a900473ffffffffffffffffffffffffffffffffffffffff16905090565b606060018054610a2e906123ca565b80601f0160208091040260200160405190810160405280929190818152602001828054610a5a906123ca565b8015610aa75780601f10610a7c57610100808354040283529160200191610aa7565b820191906000526020600020905b815481529060010190602001808311610a8a57829003601f168201915b5050505050905090565b610ac3610abc610e29565b838361133f565b5050565b610ad28484846105cd565b610ade848484846114ae565b50505050565b610aef816001610ab1565b50565b6060610afd82610d64565b506000610b08611665565b90506000815111610b285760405180602001604052806000815250610b53565b80610b328461167c565b604051602001610b439291906125bd565b6040516020818303038152906040525b915050919050565b6000600560008473ffffffffffffffffffffffffffffffffffffffff1673ffffffffffffffffffffffffffffffffffffffff16815260200190815260200160002060008373ffffffffffffffffffffffffffffffffffffffff1673ffffffffffffffffffffffffffffffffffffffff16815260200190815260200160002060009054906101000a900460ff16905092915050565b610bf76111f2565b600073ffffffffffffffffffffffffffffffffffffffff168173ffffffffffffffffffffffffffffffffffffffff1603610c695760006040517f1e4fbdf7000000000000000000000000000000000000000000000000000000008152600401610c609190612006565b60405180910390fd5b610c7281611279565b50565b3373ffffffffffffffffffffffffffffffffffffffff16610c95826108b2565b73ffffffffffffffffffffffffffffffffffffffff1614610ceb576040517f08c379a0000000000000000000000000000000000000000000000000000000008152600401610ce290612653565b60405180910390fd5b610cf633838361174a565b5050565b60007f01ffc9a7000000000000000000000000000000000000000000000000000000007bffffffffffffffffffffffffffffffffffffffffffffffffffffffff1916827bffffffffffffffffffffffffffffffffffffffffffffffffffffffff1916149050919050565b600080610d70836118b7565b9050600073ffffffffffffffffffffffffffffffffffffffff168173ffffffffffffffffffffffffffffffffffffffff1603610de357826040517f7e273289000000000000000000000000000000000000000000000000000000008152600401610dda919061209c565b60405180910390fd5b80915050919050565b60006004600083815260200190815260200160002060009054906101000a900473ffffffffffffffffffffffffffffffffffffffff169050919050565b600033905090565b610e3e83838360016118f4565b505050565b600080610e4f846118b7565b9050600073ffffffffffffffffffffffffffffffffffffffff168373ffffffffffffffffffffffffffffffffffffffff1614610e9157610e90818486611ab9565b5b600073ffffffffffffffffffffffffffffffffffffffff168173ffffffffffffffffffffffffffffffffffffffff1614610f2257610ed36000856000806118f4565b6001600360008373ffffffffffffffffffffffffffffffffffffffff1673ffffffffffffffffffffffffffffffffffffffff168152602001908152602001600020600082825403925050819055505b600073ffffffffffffffffffffffffffffffffffffffff168573ffffffffffffffffffffffffffffffffffffffff1614610fa5576001600360008773ffffffffffffffffffffffffffffffffffffffff1673ffffffffffffffffffffffffffffffffffffffff168152602001908152602001600020600082825401925050819055505b846002600086815260200190815260200160002060006101000a81548173ffffffffffffffffffffffffffffffffffffffff021916908373ffffffffffffffffffffffffffffffffffffffff160217905550838573ffffffffffffffffffffffffffffffffffffffff168273ffffffffffffffffffffffffffffffffffffffff167fddf252ad1be2c89b69c2b068fc378daa952ba7f163c4a11628f55a4df523b3ef60405160405180910390a4809150509392505050565b600073ffffffffffffffffffffffffffffffffffffffff168273ffffffffffffffffffffffffffffffffffffffff16036110cf5760006040517f64a0ae920000000000000000000000000000000000000000000000000000000081526004016110c69190612006565b60405180910390fd5b60006110dd83836000610e43565b9050600073ffffffffffffffffffffffffffffffffffffffff168173ffffffffffffffffffffffffffffffffffffffff16146111515760006040517f73c6ac6e0000000000000000000000000000000000000000000000000000000081526004016111489190612006565b60405180910390fd5b505050565b6111ee828260405160240161116c929190612673565b6040516020818303038152906040527f319af333000000000000000000000000000000000000000000000000000000007bffffffffffffffffffffffffffffffffffffffffffffffffffffffff19166020820180517bffffffffffffffffffffffffffffffffffffffffffffffffffffffff8381831617835250505050611b7d565b5050565b6111fa610e29565b73ffffffffffffffffffffffffffffffffffffffff166112186109f5565b73ffffffffffffffffffffffffffffffffffffffff16146112775761123b610e29565b6040517f118cdaa700000000000000000000000000000000000000000000000000000000815260040161126e9190612006565b60405180910390fd5b565b6000600660009054906101000a900473ffffffffffffffffffffffffffffffffffffffff16905081600660006101000a81548173ffffffffffffffffffffffffffffffffffffffff021916908373ffffffffffffffffffffffffffffffffffffffff1602179055508173ffffffffffffffffffffffffffffffffffffffff168173ffffffffffffffffffffffffffffffffffffffff167f8be0079c531659141344cd1fd0a4f28419497f9722a3daafe3b4186f6b6457e060405160405180910390a35050565b600073ffffffffffffffffffffffffffffffffffffffff168273ffffffffffffffffffffffffffffffffffffffff16036113b057816040517f5b08ba180000000000000000000000000000000000000000000000000000000081526004016113a79190612006565b60405180910390fd5b80600560008573ffffffffffffffffffffffffffffffffffffffff1673ffffffffffffffffffffffffffffffffffffffff16815260200190815260200160002060008473ffffffffffffffffffffffffffffffffffffffff1673ffffffffffffffffffffffffffffffffffffffff16815260200190815260200160002060006101000a81548160ff0219169083151502179055508173ffffffffffffffffffffffffffffffffffffffff168373ffffffffffffffffffffffffffffffffffffffff167f17307eab39ab6107e8899845ad3d59bd9653f200f220920489ca2b5937696c31836040516114a19190611e95565b60405180910390a3505050565b60008373ffffffffffffffffffffffffffffffffffffffff163b111561165f578273ffffffffffffffffffffffffffffffffffffffff1663150b7a026114f2610e29565b8685856040518563ffffffff1660e01b815260040161151494939291906126f8565b6020604051808303816000875af192505050801561155057506040513d601f19601f8201168201806040525081019061154d9190612759565b60015b6115d4573d8060008114611580576040519150601f19603f3d011682016040523d82523d6000602084013e611585565b606091505b5060008151036115cc57836040517f64a0ae920000000000000000000000000000000000000000000000000000000081526004016115c39190612006565b60405180910390fd5b805181602001fd5b63150b7a0260e01b7bffffffffffffffffffffffffffffffffffffffffffffffffffffffff1916817bffffffffffffffffffffffffffffffffffffffffffffffffffffffff19161461165d57836040517f64a0ae920000000000000000000000000000000000000000000000000000000081526004016116549190612006565b60405180910390fd5b505b50505050565b606060405180602001604052806000815250905090565b60606000600161168b84611b97565b01905060008167ffffffffffffffff8111156116aa576116a96121ad565b5b6040519080825280601f01601f1916602001820160405280156116dc5781602001600182028036833780820191505090505b509050600082602001820190505b60011561173f578080600190039150507f3031323334353637383961626364656600000000000000000000000000000000600a86061a8153600a858161173357611732612786565b5b049450600085036116ea575b819350505050919050565b600073ffffffffffffffffffffffffffffffffffffffff168273ffffffffffffffffffffffffffffffffffffffff16036117bc5760006040517f64a0ae920000000000000000000000000000000000000000000000000000000081526004016117b39190612006565b60405180910390fd5b60006117ca83836000610e43565b9050600073ffffffffffffffffffffffffffffffffffffffff168173ffffffffffffffffffffffffffffffffffffffff160361183d57816040517f7e273289000000000000000000000000000000000000000000000000000000008152600401611834919061209c565b60405180910390fd5b8373ffffffffffffffffffffffffffffffffffffffff168173ffffffffffffffffffffffffffffffffffffffff16146118b1578382826040517f64283d7b0000000000000000000000000000000000000000000000000000000081526004016118a8939291906123fb565b60405180910390fd5b50505050565b60006002600083815260200190815260200160002060009054906101000a900473ffffffffffffffffffffffffffffffffffffffff169050919050565b808061192d5750600073ffffffffffffffffffffffffffffffffffffffff168273ffffffffffffffffffffffffffffffffffffffff1614155b15611a6157600061193d84610d64565b9050600073ffffffffffffffffffffffffffffffffffffffff168373ffffffffffffffffffffffffffffffffffffffff16141580156119a857508273ffffffffffffffffffffffffffffffffffffffff168173ffffffffffffffffffffffffffffffffffffffff1614155b80156119bb57506119b98184610b5b565b155b156119fd57826040517fa9fbf51f0000000000000000000000000000000000000000000000000000000081526004016119f49190612006565b60405180910390fd5b8115611a5f57838573ffffffffffffffffffffffffffffffffffffffff168273ffffffffffffffffffffffffffffffffffffffff167f8c5be1e5ebec7d5bd14f71427d1e84f3dd0314c0f7b2291e5b200ac8c7c3b92560405160405180910390a45b505b836004600085815260200190815260200160002060006101000a81548173ffffffffffffffffffffffffffffffffffffffff021916908373ffffffffffffffffffffffffffffffffffffffff16021790555050505050565b611ac4838383611cea565b611b7857600073ffffffffffffffffffffffffffffffffffffffff168373ffffffffffffffffffffffffffffffffffffffff1603611b3957806040517f7e273289000000000000000000000000000000000000000000000000000000008152600401611b30919061209c565b60405180910390fd5b81816040517f177e802f000000000000000000000000000000000000000000000000000000008152600401611b6f9291906127b5565b60405180910390fd5b505050565b611b9481611b8c611dab611dcc565b63ffffffff16565b50565b600080600090507a184f03e93ff9f4daa797ed6e38ed64bf6a1f0100000000000000008310611bf5577a184f03e93ff9f4daa797ed6e38ed64bf6a1f0100000000000000008381611beb57611bea612786565b5b0492506040810190505b6d04ee2d6d415b85acef81000000008310611c32576d04ee2d6d415b85acef81000000008381611c2857611c27612786565b5b0492506020810190505b662386f26fc100008310611c6157662386f26fc100008381611c5757611c56612786565b5b0492506010810190505b6305f5e1008310611c8a576305f5e1008381611c8057611c7f612786565b5b0492506008810190505b6127108310611caf576127108381611ca557611ca4612786565b5b0492506004810190505b60648310611cd25760648381611cc857611cc7612786565b5b0492506002810190505b600a8310611ce1576001810190505b80915050919050565b60008073ffffffffffffffffffffffffffffffffffffffff168373ffffffffffffffffffffffffffffffffffffffff1614158015611da257508273ffffffffffffffffffffffffffffffffffffffff168473ffffffffffffffffffffffffffffffffffffffff161480611d635750611d628484610b5b565b5b80611da157508273ffffffffffffffffffffffffffffffffffffffff16611d8983610dec565b73ffffffffffffffffffffffffffffffffffffffff16145b5b90509392505050565b60006a636f6e736f6c652e6c6f679050600080835160208501845afa505050565b611dd7819050919050565b611ddf6127de565b565b6000604051905090565b600080fd5b600080fd5b60007fffffffff0000000000000000000000000000000000000000000000000000000082169050919050565b611e2a81611df5565b8114611e3557600080fd5b50565b600081359050611e4781611e21565b92915050565b600060208284031215611e6357611e62611deb565b5b6000611e7184828501611e38565b91505092915050565b60008115159050919050565b611e8f81611e7a565b82525050565b6000602082019050611eaa6000830184611e86565b92915050565b600081519050919050565b600082825260208201905092915050565b60005b83811015611eea578082015181840152602081019050611ecf565b60008484015250505050565b6000601f19601f8301169050919050565b6000611f1282611eb0565b611f1c8185611ebb565b9350611f2c818560208601611ecc565b611f3581611ef6565b840191505092915050565b60006020820190508181036000830152611f5a8184611f07565b905092915050565b6000819050919050565b611f7581611f62565b8114611f8057600080fd5b50565b600081359050611f9281611f6c565b92915050565b600060208284031215611fae57611fad611deb565b5b6000611fbc84828501611f83565b91505092915050565b600073ffffffffffffffffffffffffffffffffffffffff82169050919050565b6000611ff082611fc5565b9050919050565b61200081611fe5565b82525050565b600060208201905061201b6000830184611ff7565b92915050565b61202a81611fe5565b811461203557600080fd5b50565b60008135905061204781612021565b92915050565b6000806040838503121561206457612063611deb565b5b600061207285828601612038565b925050602061208385828601611f83565b9150509250929050565b61209681611f62565b82525050565b60006020820190506120b1600083018461208d565b92915050565b6000806000606084860312156120d0576120cf611deb565b5b60006120de86828701612038565b93505060206120ef86828701612038565b925050604061210086828701611f83565b9150509250925092565b6000602082840312156121205761211f611deb565b5b600061212e84828501612038565b91505092915050565b61214081611e7a565b811461214b57600080fd5b50565b60008135905061215d81612137565b92915050565b6000806040838503121561217a57612179611deb565b5b600061218885828601612038565b92505060206121998582860161214e565b9150509250929050565b600080fd5b600080fd5b7f4e487b7100000000000000000000000000000000000000000000000000000000600052604160045260246000fd5b6121e582611ef6565b810181811067ffffffffffffffff82111715612204576122036121ad565b5b80604052505050565b6000612217611de1565b905061222382826121dc565b919050565b600067ffffffffffffffff821115612243576122426121ad565b5b61224c82611ef6565b9050602081019050919050565b82818337600083830152505050565b600061227b61227684612228565b61220d565b905082815260208101848484011115612297576122966121a8565b5b6122a2848285612259565b509392505050565b600082601f8301126122bf576122be6121a3565b5b81356122cf848260208601612268565b91505092915050565b600080600080608085870312156122f2576122f1611deb565b5b600061230087828801612038565b945050602061231187828801612038565b935050604061232287828801611f83565b925050606085013567ffffffffffffffff81111561234357612342611df0565b5b61234f878288016122aa565b91505092959194509250565b6000806040838503121561237257612371611deb565b5b600061238085828601612038565b925050602061239185828601612038565b9150509250929050565b7f4e487b7100000000000000000000000000000000000000000000000000000000600052602260045260246000fd5b600060028204905060018216806123e257607f821691505b6020821081036123f5576123f461239b565b5b50919050565b60006060820190506124106000830186611ff7565b61241d602083018561208d565b61242a6040830184611ff7565b949350505050565b7f4552433732313a204e6f7420617070726f76656420666f72206d696e74000000600082015250565b6000612468601d83611ebb565b915061247382612432565b602082019050919050565b600060208201905081810360008301526124978161245b565b9050919050565b7f4e487b7100000000000000000000000000000000000000000000000000000000600052601160045260246000fd5b60006124d882611f62565b91507fffffffffffffffffffffffffffffffffffffffffffffffffffffffffffffffff820361250a5761250961249e565b5b600182019050919050565b7f4552433732313a204e6f7420617070726f76656420666f7220616c6c00000000600082015250565b600061254b601c83611ebb565b915061255682612515565b602082019050919050565b6000602082019050818103600083015261257a8161253e565b9050919050565b600081905092915050565b600061259782611eb0565b6125a18185612581565b93506125b1818560208601611ecc565b80840191505092915050565b60006125c9828561258c565b91506125d5828461258c565b91508190509392505050565b7f4552433732313a20596f7520617265206e6f74206f776e6572206f662074686960008201527f7320746f6b656e00000000000000000000000000000000000000000000000000602082015250565b600061263d602783611ebb565b9150612648826125e1565b604082019050919050565b6000602082019050818103600083015261266c81612630565b9050919050565b6000604082019050818103600083015261268d8185611f07565b905061269c6020830184611ff7565b9392505050565b600081519050919050565b600082825260208201905092915050565b60006126ca826126a3565b6126d481856126ae565b93506126e4818560208601611ecc565b6126ed81611ef6565b840191505092915050565b600060808201905061270d6000830187611ff7565b61271a6020830186611ff7565b612727604083018561208d565b818103606083015261273981846126bf565b905095945050505050565b60008151905061275381611e21565b92915050565b60006020828403121561276f5761276e611deb565b5b600061277d84828501612744565b91505092915050565b7f4e487b7100000000000000000000000000000000000000000000000000000000600052601260045260246000fd5b60006040820190506127ca6000830185611ff7565b6127d7602083018461208d565b9392505050565b7f4e487b7100000000000000000000000000000000000000000000000000000000600052605160045260246000fdfea26469706673582212204cf8a8c2bf6bb3297a020990360bd9efc6bc3419eca12e6c848b3a545bcf8b8264736f6c63430008180033",
  "linkReferences": {},
  "deployedLinkReferences": {}
}