{
  "_format": "hh-sol-artifact-1",
  "contractName": "APR",
  "sourceName": "contracts/APR.sol",
  "abi": [
    {
      "inputs": [
        {
          "internalType": "address",
          "name": "_erc20Contract",
          "type": "address"
        },
        {
          "internalType": "address",
          "name": "_erc721Address",
          "type": "address"
        }
      ],
      "stateMutability": "nonpayable",
      "type": "constructor"
    },
    {
      "inputs": [
        {
          "internalType": "address",
          "name": "owner",
          "type": "address"
        }
      ],
      "name": "OwnableInvalidOwner",
      "type": "error"
    },
    {
      "inputs": [
        {
          "internalType": "address",
          "name": "account",
          "type": "address"
        }
      ],
      "name": "OwnableUnauthorizedAccount",
      "type": "error"
    },
    {
      "anonymous": false,
      "inputs": [
        {
          "indexed": true,
          "internalType": "address",
          "name": "from",
          "type": "address"
        },
        {
          "indexed": true,
          "internalType": "uint256",
          "name": "amount",
          "type": "uint256"
        },
        {
          "indexed": true,
          "internalType": "uint256",
          "name": "time",
          "type": "uint256"
        }
      ],
      "name": "Claim",
      "type": "event"
    },
    {
      "anonymous": false,
      "inputs": [
        {
          "indexed": true,
          "internalType": "address",
          "name": "from",
          "type": "address"
        },
        {
          "indexed": true,
          "internalType": "uint256",
          "name": "amount",
          "type": "uint256"
        },
        {
          "indexed": true,
          "internalType": "uint256",
          "name": "time",
          "type": "uint256"
        }
      ],
      "name": "Deposit",
      "type": "event"
    },
    {
      "anonymous": false,
      "inputs": [
        {
          "indexed": true,
          "internalType": "address",
          "name": "from",
          "type": "address"
        },
        {
          "indexed": true,
          "internalType": "uint256",
          "name": "tokenId",
          "type": "uint256"
        },
        {
          "indexed": true,
          "internalType": "uint256",
          "name": "time",
          "type": "uint256"
        }
      ],
      "name": "DepositNft",
      "type": "event"
    },
    {
      "anonymous": false,
      "inputs": [
        {
          "indexed": true,
          "internalType": "address",
          "name": "from",
          "type": "address"
        },
        {
          "indexed": true,
          "internalType": "uint256",
          "name": "amount",
          "type": "uint256"
        },
        {
          "indexed": true,
          "internalType": "uint256",
          "name": "time",
          "type": "uint256"
        }
      ],
      "name": "MintToken",
      "type": "event"
    },
    {
      "anonymous": false,
      "inputs": [
        {
          "indexed": true,
          "internalType": "address",
          "name": "previousOwner",
          "type": "address"
        },
        {
          "indexed": true,
          "internalType": "address",
          "name": "newOwner",
          "type": "address"
        }
      ],
      "name": "OwnershipTransferred",
      "type": "event"
    },
    {
      "anonymous": false,
      "inputs": [
        {
          "indexed": true,
          "internalType": "address",
          "name": "from",
          "type": "address"
        },
        {
          "indexed": true,
          "internalType": "uint256",
          "name": "amount",
          "type": "uint256"
        },
        {
          "indexed": true,
          "internalType": "uint256",
          "name": "time",
          "type": "uint256"
        }
      ],
      "name": "Withdraw",
      "type": "event"
    },
    {
      "anonymous": false,
      "inputs": [
        {
          "indexed": true,
          "internalType": "address",
          "name": "from",
          "type": "address"
        },
        {
          "indexed": true,
          "internalType": "uint256",
          "name": "tokenId",
          "type": "uint256"
        },
        {
          "indexed": true,
          "internalType": "uint256",
          "name": "time",
          "type": "uint256"
        }
      ],
      "name": "WithdrawNft",
      "type": "event"
    },
    {
      "inputs": [],
      "name": "DEFAULT_APR",
      "outputs": [
        {
          "internalType": "uint8",
          "name": "",
          "type": "uint8"
        }
      ],
      "stateMutability": "view",
      "type": "function"
    },
    {
      "inputs": [],
      "name": "DEFAULT_NFT_APR",
      "outputs": [
        {
          "internalType": "uint8",
          "name": "",
          "type": "uint8"
        }
      ],
      "stateMutability": "view",
      "type": "function"
    },
    {
      "inputs": [],
      "name": "ERC20_PER_NFT",
      "outputs": [
        {
          "internalType": "uint256",
          "name": "",
          "type": "uint256"
        }
      ],
      "stateMutability": "view",
      "type": "function"
    },
    {
      "inputs": [],
      "name": "INTERVAL_TIME_DEPOSIT_IN_SECONDS",
      "outputs": [
        {
          "internalType": "uint256",
          "name": "",
          "type": "uint256"
        }
      ],
      "stateMutability": "view",
      "type": "function"
    },
    {
      "inputs": [],
      "name": "SECONDS_IN_DAY",
      "outputs": [
        {
          "internalType": "uint256",
          "name": "",
          "type": "uint256"
        }
      ],
      "stateMutability": "view",
      "type": "function"
    },
    {
      "inputs": [],
      "name": "SECONDS_IN_HOUR",
      "outputs": [
        {
          "internalType": "uint256",
          "name": "",
          "type": "uint256"
        }
      ],
      "stateMutability": "view",
      "type": "function"
    },
    {
      "inputs": [],
      "name": "SECONDS_IN_MINUTE",
      "outputs": [
        {
          "internalType": "uint256",
          "name": "",
          "type": "uint256"
        }
      ],
      "stateMutability": "view",
      "type": "function"
    },
    {
      "inputs": [],
      "name": "SECONDS_IN_YEAR",
      "outputs": [
        {
          "internalType": "uint256",
          "name": "",
          "type": "uint256"
        }
      ],
      "stateMutability": "view",
      "type": "function"
    },
    {
      "inputs": [],
      "name": "claimReward",
      "outputs": [],
      "stateMutability": "nonpayable",
      "type": "function"
    },
    {
      "inputs": [
        {
          "internalType": "uint256",
          "name": "amount",
          "type": "uint256"
        }
      ],
      "name": "deposit",
      "outputs": [],
      "stateMutability": "nonpayable",
      "type": "function"
    },
    {
      "inputs": [
        {
          "internalType": "uint256",
          "name": "tokenId",
          "type": "uint256"
        }
      ],
      "name": "depositERC721",
      "outputs": [],
      "stateMutability": "nonpayable",
      "type": "function"
    },
    {
      "inputs": [
        {
          "internalType": "address",
          "name": "from",
          "type": "address"
        }
      ],
      "name": "getAPR",
      "outputs": [
        {
          "internalType": "uint256",
          "name": "",
          "type": "uint256"
        }
      ],
      "stateMutability": "view",
      "type": "function"
    },
    {
      "inputs": [],
      "name": "getClaimTime",
      "outputs": [
        {
          "internalType": "uint256",
          "name": "",
          "type": "uint256"
        }
      ],
      "stateMutability": "view",
      "type": "function"
    },
    {
      "inputs": [],
      "name": "getDepositNftCount",
      "outputs": [
        {
          "internalType": "uint256[]",
          "name": "",
          "type": "uint256[]"
        }
      ],
      "stateMutability": "view",
      "type": "function"
    },
    {
      "inputs": [],
      "name": "getErc20Balance",
      "outputs": [
        {
          "internalType": "uint256",
          "name": "",
          "type": "uint256"
        }
      ],
      "stateMutability": "view",
      "type": "function"
    },
    {
      "inputs": [],
      "name": "getErc721Balance",
      "outputs": [
        {
          "internalType": "uint256[]",
          "name": "",
          "type": "uint256[]"
        }
      ],
      "stateMutability": "view",
      "type": "function"
    },
    {
      "inputs": [],
      "name": "getWithdrawTime",
      "outputs": [
        {
          "internalType": "uint256",
          "name": "",
          "type": "uint256"
        }
      ],
      "stateMutability": "view",
      "type": "function"
    },
    {
      "inputs": [],
      "name": "owner",
      "outputs": [
        {
          "internalType": "address",
          "name": "",
          "type": "address"
        }
      ],
      "stateMutability": "view",
      "type": "function"
    },
    {
      "inputs": [],
      "name": "renounceOwnership",
      "outputs": [],
      "stateMutability": "nonpayable",
      "type": "function"
    },
    {
      "inputs": [
        {
          "internalType": "uint8",
          "name": "amount",
          "type": "uint8"
        }
      ],
      "name": "setDefaultAPR",
      "outputs": [],
      "stateMutability": "nonpayable",
      "type": "function"
    },
    {
      "inputs": [
        {
          "internalType": "address",
          "name": "newOwner",
          "type": "address"
        }
      ],
      "name": "transferOwnership",
      "outputs": [],
      "stateMutability": "nonpayable",
      "type": "function"
    },
    {
      "inputs": [],
      "name": "withdraw",
      "outputs": [],
      "stateMutability": "nonpayable",
      "type": "function"
    },
    {
      "inputs": [
        {
          "internalType": "uint256",
          "name": "tokenId",
          "type": "uint256"
        }
      ],
      "name": "withdrawERC721",
      "outputs": [],
      "stateMutability": "nonpayable",
      "type": "function"
    }
  ],
  "bytecode": "0x60806040526008600260146101000a81548160ff021916908360ff1602179055503480156200002d57600080fd5b50604051620035f6380380620035f6833981810160405281019062000053919062000293565b33600073ffffffffffffffffffffffffffffffffffffffff168173ffffffffffffffffffffffffffffffffffffffff1603620000c95760006040517f1e4fbdf7000000000000000000000000000000000000000000000000000000008152600401620000c09190620002eb565b60405180910390fd5b620000da816200016560201b60201c565b5081600260006101000a81548173ffffffffffffffffffffffffffffffffffffffff021916908373ffffffffffffffffffffffffffffffffffffffff16021790555080600160006101000a81548173ffffffffffffffffffffffffffffffffffffffff021916908373ffffffffffffffffffffffffffffffffffffffff160217905550505062000308565b60008060009054906101000a900473ffffffffffffffffffffffffffffffffffffffff169050816000806101000a81548173ffffffffffffffffffffffffffffffffffffffff021916908373ffffffffffffffffffffffffffffffffffffffff1602179055508173ffffffffffffffffffffffffffffffffffffffff168173ffffffffffffffffffffffffffffffffffffffff167f8be0079c531659141344cd1fd0a4f28419497f9722a3daafe3b4186f6b6457e060405160405180910390a35050565b600080fd5b600073ffffffffffffffffffffffffffffffffffffffff82169050919050565b60006200025b826200022e565b9050919050565b6200026d816200024e565b81146200027957600080fd5b50565b6000815190506200028d8162000262565b92915050565b60008060408385031215620002ad57620002ac62000229565b5b6000620002bd858286016200027c565b9250506020620002d0858286016200027c565b9150509250929050565b620002e5816200024e565b82525050565b6000602082019050620003026000830184620002da565b92915050565b6132de80620003186000396000f3fe608060405234801561001057600080fd5b506004361061014d5760003560e01c80638da5cb5b116100c3578063e1041af51161007c578063e1041af514610322578063eb24d10e1461033e578063ed1ea5d31461035c578063f237455114610378578063f2fde38b14610396578063f5a07256146103b25761014d565b80638da5cb5b14610286578063b578abee146102a4578063b6b55f25146102c2578063b88a802f146102de578063c420845f146102e8578063d8a63f59146103065761014d565b80635dcc9391116101155780635dcc9391146101e657806361a52a3614610204578063715018a61461022257806372477ed41461022c5780638793f2c71461024a5780638c9f5770146102685761014d565b80630b47a1a0146101525780631c5122d9146101705780633ccfd60b146101a05780634e4f9424146101aa5780635858b640146101c8575b600080fd5b61015a6103d0565b6040516101679190612738565b60405180910390f35b61018a600480360381019061018591906127b6565b6103d7565b6040516101979190612738565b60405180910390f35b6101a861044d565b005b6101b26104a2565b6040516101bf91906128a1565b60405180910390f35b6101d06106ca565b6040516101dd91906128df565b60405180910390f35b6101ee6106dd565b6040516101fb9190612738565b60405180910390f35b61020c6106e5565b6040516102199190612738565b60405180910390f35b61022a6106ec565b005b610234610700565b60405161024191906128df565b60405180910390f35b610252610705565b60405161025f9190612738565b60405180910390f35b61027061070b565b60405161027d91906128a1565b60405180910390f35b61028e6109b2565b60405161029b9190612909565b60405180910390f35b6102ac6109db565b6040516102b99190612738565b60405180910390f35b6102dc60048036038101906102d79190612950565b6109ec565b005b6102e6610c4f565b005b6102f0610d7b565b6040516102fd9190612738565b60405180910390f35b610320600480360381019061031b9190612950565b610dc5565b005b61033c60048036038101906103379190612950565b6111a6565b005b6103466114f9565b6040516103539190612738565b60405180910390f35b610376600480360381019061037191906129a9565b61159c565b005b6103806115c2565b60405161038d9190612738565b60405180910390f35b6103b060048036038101906103ab91906127b6565b6115c7565b005b6103ba61164d565b6040516103c79190612738565b60405180910390f35b620f424081565b6000600260149054906101000a900460ff16600360008473ffffffffffffffffffffffffffffffffffffffff1673ffffffffffffffffffffffffffffffffffffffff16815260200190815260200160002060000160009054906101000a900460ff166104439190612a05565b60ff169050919050565b600061045833611697565b905042813373ffffffffffffffffffffffffffffffffffffffff167ff279e6a1f5e320cca91135676d9cb6e44ca8a08c0b88342bcdb1144f6511b56860405160405180910390a450565b606060003390506000600360008373ffffffffffffffffffffffffffffffffffffffff1673ffffffffffffffffffffffffffffffffffffffff1681526020019081526020016000206004015467ffffffffffffffff81111561050757610506612a3a565b5b6040519080825280602002602001820160405280156105355781602001602082028036833780820191505090505b5090506000805b600160009054906101000a900473ffffffffffffffffffffffffffffffffffffffff1673ffffffffffffffffffffffffffffffffffffffff166318160ddd6040518163ffffffff1660e01b8152600401602060405180830381865afa1580156105a9573d6000803e3d6000fd5b505050506040513d601f19601f820116820180604052508101906105cd9190612a7e565b8110156106c0578373ffffffffffffffffffffffffffffffffffffffff166004600083815260200190815260200160002060009054906101000a900473ffffffffffffffffffffffffffffffffffffffff1673ffffffffffffffffffffffffffffffffffffffff1603610669578083838151811061064e5761064d612aab565b5b602002602001018181525050818061066590612ada565b9250505b600360008573ffffffffffffffffffffffffffffffffffffffff1673ffffffffffffffffffffffffffffffffffffffff168152602001908152602001600020600401548203156106c057808060010191505061053c565b5081935050505090565b600260149054906101000a900460ff1681565b6301e1338081565b6201518081565b6106f4611a27565b6106fe6000611aae565b565b600281565b610e1081565b60606000600160009054906101000a900473ffffffffffffffffffffffffffffffffffffffff1673ffffffffffffffffffffffffffffffffffffffff166370a08231336040518263ffffffff1660e01b815260040161076a9190612909565b602060405180830381865afa158015610787573d6000803e3d6000fd5b505050506040513d601f19601f820116820180604052508101906107ab9190612a7e565b905060008167ffffffffffffffff8111156107c9576107c8612a3a565b5b6040519080825280602002602001820160405280156107f75781602001602082028036833780820191505090505b5090506000805b600160009054906101000a900473ffffffffffffffffffffffffffffffffffffffff1673ffffffffffffffffffffffffffffffffffffffff166318160ddd6040518163ffffffff1660e01b8152600401602060405180830381865afa15801561086b573d6000803e3d6000fd5b505050506040513d601f19601f8201168201806040525081019061088f9190612a7e565b8110156109a8573373ffffffffffffffffffffffffffffffffffffffff16600160009054906101000a900473ffffffffffffffffffffffffffffffffffffffff1673ffffffffffffffffffffffffffffffffffffffff16636352211e836040518263ffffffff1660e01b81526004016109089190612738565b602060405180830381865afa158015610925573d6000803e3d6000fd5b505050506040513d601f19601f820116820180604052508101906109499190612b37565b73ffffffffffffffffffffffffffffffffffffffff1603610993578083838151811061097857610977612aab565b5b602002602001018181525050818061098f90612ada565b9250505b838203156109a85780806001019150506107fe565b5081935050505090565b60008060009054906101000a900473ffffffffffffffffffffffffffffffffffffffff16905090565b6002600f6109e99190612b64565b81565b6000339050600260009054906101000a900473ffffffffffffffffffffffffffffffffffffffff1673ffffffffffffffffffffffffffffffffffffffff1663313ce5676040518163ffffffff1660e01b8152600401602060405180830381865afa158015610a5e573d6000803e3d6000fd5b505050506040513d601f19601f82011682018060405250810190610a829190612bbb565b600a610a8e9190612d1b565b82610a999190612b64565b9150600260009054906101000a900473ffffffffffffffffffffffffffffffffffffffff1673ffffffffffffffffffffffffffffffffffffffff166323b872dd8230856040518463ffffffff1660e01b8152600401610afa93929190612d66565b6020604051808303816000875af1158015610b19573d6000803e3d6000fd5b505050506040513d601f19601f82011682018060405250810190610b3d9190612dd5565b50610b488183611b72565b6002600f610b569190612b64565b42610b619190612e02565b600360008373ffffffffffffffffffffffffffffffffffffffff1673ffffffffffffffffffffffffffffffffffffffff168152602001908152602001600020600301819055506002600f610bb59190612b64565b42610bc09190612e02565b600360008373ffffffffffffffffffffffffffffffffffffffff1673ffffffffffffffffffffffffffffffffffffffff1681526020019081526020016000206002018190555042828273ffffffffffffffffffffffffffffffffffffffff167f90890809c654f11d6e72a28fa60149770a0d11ec6c92319d6ceb2bb0a4ea1a1560405160405180910390a45050565b6000610c5a336123dc565b9050600260009054906101000a900473ffffffffffffffffffffffffffffffffffffffff1673ffffffffffffffffffffffffffffffffffffffff1663174e31c433836040518363ffffffff1660e01b8152600401610cb9929190612e36565b600060405180830381600087803b158015610cd357600080fd5b505af1158015610ce7573d6000803e3d6000fd5b505050506000600560003373ffffffffffffffffffffffffffffffffffffffff1673ffffffffffffffffffffffffffffffffffffffff1681526020019081526020016000206001018190555042813373ffffffffffffffffffffffffffffffffffffffff167f34fcbac0073d7c3d388e51312faf357774904998eeb8fca628b9e6f65ee1cbf760405160405180910390a450565b6000600360003373ffffffffffffffffffffffffffffffffffffffff1673ffffffffffffffffffffffffffffffffffffffff16815260200190815260200160002060030154905090565b336000600160009054906101000a900473ffffffffffffffffffffffffffffffffffffffff1673ffffffffffffffffffffffffffffffffffffffff166370a08231836040518263ffffffff1660e01b8152600401610e239190612909565b602060405180830381865afa158015610e40573d6000803e3d6000fd5b505050506040513d601f19601f82011682018060405250810190610e649190612a7e565b11610ea4576040517f08c379a0000000000000000000000000000000000000000000000000000000008152600401610e9b90612ee2565b60405180910390fd5b3373ffffffffffffffffffffffffffffffffffffffff16600160009054906101000a900473ffffffffffffffffffffffffffffffffffffffff1673ffffffffffffffffffffffffffffffffffffffff16636352211e846040518263ffffffff1660e01b8152600401610f169190612738565b602060405180830381865afa158015610f33573d6000803e3d6000fd5b505050506040513d601f19601f82011682018060405250810190610f579190612b37565b73ffffffffffffffffffffffffffffffffffffffff1614610fad576040517f08c379a0000000000000000000000000000000000000000000000000000000008152600401610fa490612f74565b60405180910390fd5b600160009054906101000a900473ffffffffffffffffffffffffffffffffffffffff1673ffffffffffffffffffffffffffffffffffffffff166347e7ef2430846040518363ffffffff1660e01b815260040161100a929190612e36565b600060405180830381600087803b15801561102457600080fd5b505af1158015611038573d6000803e3d6000fd5b505050506002600360003373ffffffffffffffffffffffffffffffffffffffff1673ffffffffffffffffffffffffffffffffffffffff16815260200190815260200160002060000160008282829054906101000a900460ff1661109b9190612a05565b92506101000a81548160ff021916908360ff160217905550600360003373ffffffffffffffffffffffffffffffffffffffff1673ffffffffffffffffffffffffffffffffffffffff168152602001908152602001600020600401600081548092919061110690612ada565b9190505550336004600084815260200190815260200160002060006101000a81548173ffffffffffffffffffffffffffffffffffffffff021916908373ffffffffffffffffffffffffffffffffffffffff16021790555042823373ffffffffffffffffffffffffffffffffffffffff167f7ad89f71bfd411c34e67f1593de34f11c471d79fdb7ed6adadf0253814be9f3660405160405180910390a45050565b33813073ffffffffffffffffffffffffffffffffffffffff16600160009054906101000a900473ffffffffffffffffffffffffffffffffffffffff1673ffffffffffffffffffffffffffffffffffffffff16636352211e836040518263ffffffff1660e01b815260040161121a9190612738565b602060405180830381865afa158015611237573d6000803e3d6000fd5b505050506040513d601f19601f8201168201806040525081019061125b9190612b37565b73ffffffffffffffffffffffffffffffffffffffff161480156112dc57508173ffffffffffffffffffffffffffffffffffffffff166004600083815260200190815260200160002060009054906101000a900473ffffffffffffffffffffffffffffffffffffffff1673ffffffffffffffffffffffffffffffffffffffff16145b61131b576040517f08c379a000000000000000000000000000000000000000000000000000000000815260040161131290613006565b60405180910390fd5b600160009054906101000a900473ffffffffffffffffffffffffffffffffffffffff1673ffffffffffffffffffffffffffffffffffffffff1663f3fef3a333856040518363ffffffff1660e01b8152600401611378929190612e36565b600060405180830381600087803b15801561139257600080fd5b505af11580156113a6573d6000803e3d6000fd5b505050506002600360003373ffffffffffffffffffffffffffffffffffffffff1673ffffffffffffffffffffffffffffffffffffffff16815260200190815260200160002060000160008282829054906101000a900460ff166114099190613026565b92506101000a81548160ff021916908360ff160217905550600360003373ffffffffffffffffffffffffffffffffffffffff1673ffffffffffffffffffffffffffffffffffffffff16815260200190815260200160002060040160008154809291906114749061305b565b91905055506004600084815260200190815260200160002060006101000a81549073ffffffffffffffffffffffffffffffffffffffff021916905542833373ffffffffffffffffffffffffffffffffffffffff167fcae6e85b835fcf864c07fb3cd4909bf840bf5114adf6a9f2553470fe7ca78ddc60405160405180910390a4505050565b6000600260009054906101000a900473ffffffffffffffffffffffffffffffffffffffff1673ffffffffffffffffffffffffffffffffffffffff166370a08231336040518263ffffffff1660e01b81526004016115569190612909565b602060405180830381865afa158015611573573d6000803e3d6000fd5b505050506040513d601f19601f820116820180604052508101906115979190612a7e565b905090565b6115a4611a27565b80600260146101000a81548160ff021916908360ff16021790555050565b600281565b6115cf611a27565b600073ffffffffffffffffffffffffffffffffffffffff168173ffffffffffffffffffffffffffffffffffffffff16036116415760006040517f1e4fbdf70000000000000000000000000000000000000000000000000000000081526004016116389190612909565b60405180910390fd5b61164a81611aae565b50565b6000600360003373ffffffffffffffffffffffffffffffffffffffff1673ffffffffffffffffffffffffffffffffffffffff16815260200190815260200160002060020154905090565b6000816000600360008373ffffffffffffffffffffffffffffffffffffffff1673ffffffffffffffffffffffffffffffffffffffff168152602001908152602001600020600301541415801561172f575042600360008373ffffffffffffffffffffffffffffffffffffffff1673ffffffffffffffffffffffffffffffffffffffff1681526020019081526020016000206003015411155b61176e576040517f08c379a0000000000000000000000000000000000000000000000000000000008152600401611765906130f6565b60405180910390fd5b6000611779846123dc565b9050600260009054906101000a900473ffffffffffffffffffffffffffffffffffffffff1673ffffffffffffffffffffffffffffffffffffffff1663174e31c433836040518363ffffffff1660e01b81526004016117d8929190612e36565b600060405180830381600087803b1580156117f257600080fd5b505af1158015611806573d6000803e3d6000fd5b50505050600260009054906101000a900473ffffffffffffffffffffffffffffffffffffffff1673ffffffffffffffffffffffffffffffffffffffff16635f7807a485600360008873ffffffffffffffffffffffffffffffffffffffff1673ffffffffffffffffffffffffffffffffffffffff168152602001908152602001600020600101546040518363ffffffff1660e01b81526004016118a9929190612e36565b600060405180830381600087803b1580156118c357600080fd5b505af11580156118d7573d6000803e3d6000fd5b50505050600081600360008773ffffffffffffffffffffffffffffffffffffffff1673ffffffffffffffffffffffffffffffffffffffff1681526020019081526020016000206001015461192b9190612e02565b90506000600560003373ffffffffffffffffffffffffffffffffffffffff1673ffffffffffffffffffffffffffffffffffffffff168152602001908152602001600020600101819055506000600360008773ffffffffffffffffffffffffffffffffffffffff1673ffffffffffffffffffffffffffffffffffffffff168152602001908152602001600020600101819055506002600f6119cb9190612b64565b426119d69190612e02565b600360008773ffffffffffffffffffffffffffffffffffffffff1673ffffffffffffffffffffffffffffffffffffffff16815260200190815260200160002060030181905550809350505050919050565b611a2f612717565b73ffffffffffffffffffffffffffffffffffffffff16611a4d6109b2565b73ffffffffffffffffffffffffffffffffffffffff1614611aac57611a70612717565b6040517f118cdaa7000000000000000000000000000000000000000000000000000000008152600401611aa39190612909565b60405180910390fd5b565b60008060009054906101000a900473ffffffffffffffffffffffffffffffffffffffff169050816000806101000a81548173ffffffffffffffffffffffffffffffffffffffff021916908373ffffffffffffffffffffffffffffffffffffffff1602179055508173ffffffffffffffffffffffffffffffffffffffff168173ffffffffffffffffffffffffffffffffffffffff167f8be0079c531659141344cd1fd0a4f28419497f9722a3daafe3b4186f6b6457e060405160405180910390a35050565b6000600560008473ffffffffffffffffffffffffffffffffffffffff1673ffffffffffffffffffffffffffffffffffffffff1681526020019081526020016000206000015403611c085742600560008473ffffffffffffffffffffffffffffffffffffffff1673ffffffffffffffffffffffffffffffffffffffff16815260200190815260200160002060000181905550611d7d565b6000600560008473ffffffffffffffffffffffffffffffffffffffff1673ffffffffffffffffffffffffffffffffffffffff1681526020019081526020016000206000015442611c589190613116565b905060006301e133806064611c6d9190612b64565b82611c77866103d7565b600360008873ffffffffffffffffffffffffffffffffffffffff1673ffffffffffffffffffffffffffffffffffffffff16815260200190815260200160002060010154611cc49190612b64565b611cce9190612b64565b611cd89190613179565b905042600560008673ffffffffffffffffffffffffffffffffffffffff1673ffffffffffffffffffffffffffffffffffffffff1681526020019081526020016000206000018190555080600560008673ffffffffffffffffffffffffffffffffffffffff1673ffffffffffffffffffffffffffffffffffffffff1681526020019081526020016000206001016000828254611d739190612e02565b9250508190555050505b80600360008473ffffffffffffffffffffffffffffffffffffffff1673ffffffffffffffffffffffffffffffffffffffff1681526020019081526020016000206001016000828254611dcf9190612e02565b92505081905550600260009054906101000a900473ffffffffffffffffffffffffffffffffffffffff1673ffffffffffffffffffffffffffffffffffffffff1663313ce5676040518163ffffffff1660e01b8152600401602060405180830381865afa158015611e43573d6000803e3d6000fd5b505050506040513d601f19601f82011682018060405250810190611e679190612bbb565b600a611e739190612d1b565b620f4240611e7f6104a2565b51600160009054906101000a900473ffffffffffffffffffffffffffffffffffffffff1673ffffffffffffffffffffffffffffffffffffffff166370a08231866040518263ffffffff1660e01b8152600401611edb9190612909565b602060405180830381865afa158015611ef8573d6000803e3d6000fd5b505050506040513d601f19601f82011682018060405250810190611f1c9190612a7e565b611f269190612e02565b611f309190612b64565b611f3a9190612b64565b600360008473ffffffffffffffffffffffffffffffffffffffff1673ffffffffffffffffffffffffffffffffffffffff16815260200190815260200160002060010154106123d8576000600260009054906101000a900473ffffffffffffffffffffffffffffffffffffffff1673ffffffffffffffffffffffffffffffffffffffff1663313ce5676040518163ffffffff1660e01b8152600401602060405180830381865afa158015611ff1573d6000803e3d6000fd5b505050506040513d601f19601f820116820180604052508101906120159190612bbb565b600a6120219190612d1b565b620f424061202d6104a2565b51600160009054906101000a900473ffffffffffffffffffffffffffffffffffffffff1673ffffffffffffffffffffffffffffffffffffffff166370a08231876040518263ffffffff1660e01b81526004016120899190612909565b602060405180830381865afa1580156120a6573d6000803e3d6000fd5b505050506040513d601f19601f820116820180604052508101906120ca9190612a7e565b6120d49190612e02565b6120de9190612b64565b6120e89190612b64565b600360008573ffffffffffffffffffffffffffffffffffffffff1673ffffffffffffffffffffffffffffffffffffffff168152602001908152602001600020600101546121359190613116565b9050600260009054906101000a900473ffffffffffffffffffffffffffffffffffffffff1673ffffffffffffffffffffffffffffffffffffffff1663313ce5676040518163ffffffff1660e01b8152600401602060405180830381865afa1580156121a4573d6000803e3d6000fd5b505050506040513d601f19601f820116820180604052508101906121c89190612bbb565b600a6121d49190612d1b565b620f42406121e29190612b64565b81106123d65760005b600260009054906101000a900473ffffffffffffffffffffffffffffffffffffffff1673ffffffffffffffffffffffffffffffffffffffff1663313ce5676040518163ffffffff1660e01b8152600401602060405180830381865afa158015612258573d6000803e3d6000fd5b505050506040513d601f19601f8201168201806040525081019061227c9190612bbb565b600a6122889190612d1b565b620f42406122969190612b64565b826122a19190613179565b8110156123d457600160009054906101000a900473ffffffffffffffffffffffffffffffffffffffff1673ffffffffffffffffffffffffffffffffffffffff166340c10f1985600160009054906101000a900473ffffffffffffffffffffffffffffffffffffffff1673ffffffffffffffffffffffffffffffffffffffff166318160ddd6040518163ffffffff1660e01b8152600401602060405180830381865afa158015612354573d6000803e3d6000fd5b505050506040513d601f19601f820116820180604052508101906123789190612a7e565b6040518363ffffffff1660e01b8152600401612395929190612e36565b600060405180830381600087803b1580156123af57600080fd5b505af11580156123c3573d6000803e3d6000fd5b5050505080806001019150506121eb565b505b505b5050565b6000816000600360008373ffffffffffffffffffffffffffffffffffffffff1673ffffffffffffffffffffffffffffffffffffffff1681526020019081526020016000206001015411612464576040517f08c379a000000000000000000000000000000000000000000000000000000000815260040161245b906131f6565b60405180910390fd5b826000600360008373ffffffffffffffffffffffffffffffffffffffff1673ffffffffffffffffffffffffffffffffffffffff16815260200190815260200160002060020154141580156124fa575042600360008373ffffffffffffffffffffffffffffffffffffffff1673ffffffffffffffffffffffffffffffffffffffff1681526020019081526020016000206002015411155b612539576040517f08c379a000000000000000000000000000000000000000000000000000000000815260040161253090613288565b60405180910390fd5b60004290506000600560008773ffffffffffffffffffffffffffffffffffffffff1673ffffffffffffffffffffffffffffffffffffffff168152602001908152602001600020600001548261258e9190613116565b905060006301e1338060646125a39190612b64565b826125ad896103d7565b600360008b73ffffffffffffffffffffffffffffffffffffffff1673ffffffffffffffffffffffffffffffffffffffff168152602001908152602001600020600101546125fa9190612b64565b6126049190612b64565b61260e9190613179565b905080600560008973ffffffffffffffffffffffffffffffffffffffff1673ffffffffffffffffffffffffffffffffffffffff16815260200190815260200160002060010160008282546126629190612e02565b925050819055506002600f6126779190612b64565b836126829190612e02565b600360008973ffffffffffffffffffffffffffffffffffffffff1673ffffffffffffffffffffffffffffffffffffffff16815260200190815260200160002060020181905550600560008873ffffffffffffffffffffffffffffffffffffffff1673ffffffffffffffffffffffffffffffffffffffff1681526020019081526020016000206001015495505050505050919050565b600033905090565b6000819050919050565b6127328161271f565b82525050565b600060208201905061274d6000830184612729565b92915050565b600080fd5b600073ffffffffffffffffffffffffffffffffffffffff82169050919050565b600061278382612758565b9050919050565b61279381612778565b811461279e57600080fd5b50565b6000813590506127b08161278a565b92915050565b6000602082840312156127cc576127cb612753565b5b60006127da848285016127a1565b91505092915050565b600081519050919050565b600082825260208201905092915050565b6000819050602082019050919050565b6128188161271f565b82525050565b600061282a838361280f565b60208301905092915050565b6000602082019050919050565b600061284e826127e3565b61285881856127ee565b9350612863836127ff565b8060005b8381101561289457815161287b888261281e565b975061288683612836565b925050600181019050612867565b5085935050505092915050565b600060208201905081810360008301526128bb8184612843565b905092915050565b600060ff82169050919050565b6128d9816128c3565b82525050565b60006020820190506128f460008301846128d0565b92915050565b61290381612778565b82525050565b600060208201905061291e60008301846128fa565b92915050565b61292d8161271f565b811461293857600080fd5b50565b60008135905061294a81612924565b92915050565b60006020828403121561296657612965612753565b5b60006129748482850161293b565b91505092915050565b612986816128c3565b811461299157600080fd5b50565b6000813590506129a38161297d565b92915050565b6000602082840312156129bf576129be612753565b5b60006129cd84828501612994565b91505092915050565b7f4e487b7100000000000000000000000000000000000000000000000000000000600052601160045260246000fd5b6000612a10826128c3565b9150612a1b836128c3565b9250828201905060ff811115612a3457612a336129d6565b5b92915050565b7f4e487b7100000000000000000000000000000000000000000000000000000000600052604160045260246000fd5b600081519050612a7881612924565b92915050565b600060208284031215612a9457612a93612753565b5b6000612aa284828501612a69565b91505092915050565b7f4e487b7100000000000000000000000000000000000000000000000000000000600052603260045260246000fd5b6000612ae58261271f565b91507fffffffffffffffffffffffffffffffffffffffffffffffffffffffffffffffff8203612b1757612b166129d6565b5b600182019050919050565b600081519050612b318161278a565b92915050565b600060208284031215612b4d57612b4c612753565b5b6000612b5b84828501612b22565b91505092915050565b6000612b6f8261271f565b9150612b7a8361271f565b9250828202612b888161271f565b91508282048414831517612b9f57612b9e6129d6565b5b5092915050565b600081519050612bb58161297d565b92915050565b600060208284031215612bd157612bd0612753565b5b6000612bdf84828501612ba6565b91505092915050565b60008160011c9050919050565b6000808291508390505b6001851115612c3f57808604811115612c1b57612c1a6129d6565b5b6001851615612c2a5780820291505b8081029050612c3885612be8565b9450612bff565b94509492505050565b600082612c585760019050612d14565b81612c665760009050612d14565b8160018114612c7c5760028114612c8657612cb5565b6001915050612d14565b60ff841115612c9857612c976129d6565b5b8360020a915084821115612caf57612cae6129d6565b5b50612d14565b5060208310610133831016604e8410600b8410161715612cea5782820a905083811115612ce557612ce46129d6565b5b612d14565b612cf78484846001612bf5565b92509050818404811115612d0e57612d0d6129d6565b5b81810290505b9392505050565b6000612d268261271f565b9150612d31836128c3565b9250612d5e7fffffffffffffffffffffffffffffffffffffffffffffffffffffffffffffffff8484612c48565b905092915050565b6000606082019050612d7b60008301866128fa565b612d8860208301856128fa565b612d956040830184612729565b949350505050565b60008115159050919050565b612db281612d9d565b8114612dbd57600080fd5b50565b600081519050612dcf81612da9565b92915050565b600060208284031215612deb57612dea612753565b5b6000612df984828501612dc0565b91505092915050565b6000612e0d8261271f565b9150612e188361271f565b9250828201905080821115612e3057612e2f6129d6565b5b92915050565b6000604082019050612e4b60008301856128fa565b612e586020830184612729565b9392505050565b600082825260208201905092915050565b7f4150523a204465706f736974204e465420696e74657276616c206973206e6f7460008201527f2070617373656400000000000000000000000000000000000000000000000000602082015250565b6000612ecc602783612e5f565b9150612ed782612e70565b604082019050919050565b60006020820190508181036000830152612efb81612ebf565b9050919050565b7f4150523a20596f7520617265206e6f74206f776e6572206f662074686973207460008201527f6f6b656e00000000000000000000000000000000000000000000000000000000602082015250565b6000612f5e602483612e5f565b9150612f6982612f02565b604082019050919050565b60006020820190508181036000830152612f8d81612f51565b9050919050565b7f4150523a207468697320636f6e747261637420617265206e6f74206f776e657260008201527f206f66207468697320746f6b656e000000000000000000000000000000000000602082015250565b6000612ff0602e83612e5f565b9150612ffb82612f94565b604082019050919050565b6000602082019050818103600083015261301f81612fe3565b9050919050565b6000613031826128c3565b915061303c836128c3565b9250828203905060ff811115613055576130546129d6565b5b92915050565b60006130668261271f565b915060008203613079576130786129d6565b5b600182039050919050565b7f4150523a20576974686472617720696e74657276616c206973206e6f7420706160008201527f7373656400000000000000000000000000000000000000000000000000000000602082015250565b60006130e0602483612e5f565b91506130eb82613084565b604082019050919050565b6000602082019050818103600083015261310f816130d3565b9050919050565b60006131218261271f565b915061312c8361271f565b9250828203905081811115613144576131436129d6565b5b92915050565b7f4e487b7100000000000000000000000000000000000000000000000000000000600052601260045260246000fd5b60006131848261271f565b915061318f8361271f565b92508261319f5761319e61314a565b5b828204905092915050565b7f41646472657373206973206e6f7420656e6f75676820746f6b656e0000000000600082015250565b60006131e0601b83612e5f565b91506131eb826131aa565b602082019050919050565b6000602082019050818103600083015261320f816131d3565b9050919050565b7f4150523a20436c61696d20696e74657276616c206973206e6f7420706173736560008201527f6400000000000000000000000000000000000000000000000000000000000000602082015250565b6000613272602183612e5f565b915061327d82613216565b604082019050919050565b600060208201905081810360008301526132a181613265565b905091905056fea2646970667358221220b6c9c6a70540641fc88a9a0067dae5733109129a284ef85ec084c0aabaee1f1364736f6c63430008180033",
  "linkReferences": {},
  "deployedLinkReferences": {}
}