{
  "_format": "hh-sol-artifact-1",
  "contractName": "APR",
  "sourceName": "contracts/APR.sol",
  "abi": [
    {
      "inputs": [
        {
          "internalType": "address",
          "name": "_erc20Contract",
          "type": "address"
        },
        {
          "internalType": "address",
          "name": "_erc721Address",
          "type": "address"
        }
      ],
      "stateMutability": "nonpayable",
      "type": "constructor"
    },
    {
      "anonymous": false,
      "inputs": [
        {
          "indexed": true,
          "internalType": "address",
          "name": "from",
          "type": "address"
        },
        {
          "indexed": true,
          "internalType": "uint256",
          "name": "amount",
          "type": "uint256"
        },
        {
          "indexed": true,
          "internalType": "uint256",
          "name": "time",
          "type": "uint256"
        }
      ],
      "name": "Claim",
      "type": "event"
    },
    {
      "anonymous": false,
      "inputs": [
        {
          "indexed": true,
          "internalType": "address",
          "name": "from",
          "type": "address"
        },
        {
          "indexed": true,
          "internalType": "uint256",
          "name": "amount",
          "type": "uint256"
        },
        {
          "indexed": true,
          "internalType": "uint256",
          "name": "time",
          "type": "uint256"
        }
      ],
      "name": "Deposit",
      "type": "event"
    },
    {
      "anonymous": false,
      "inputs": [
        {
          "indexed": true,
          "internalType": "address",
          "name": "from",
          "type": "address"
        },
        {
          "indexed": true,
          "internalType": "uint256",
          "name": "tokenId",
          "type": "uint256"
        },
        {
          "indexed": true,
          "internalType": "uint256",
          "name": "time",
          "type": "uint256"
        }
      ],
      "name": "DepositNft",
      "type": "event"
    },
    {
      "anonymous": false,
      "inputs": [
        {
          "indexed": true,
          "internalType": "address",
          "name": "from",
          "type": "address"
        },
        {
          "indexed": true,
          "internalType": "uint256",
          "name": "amount",
          "type": "uint256"
        },
        {
          "indexed": true,
          "internalType": "uint256",
          "name": "time",
          "type": "uint256"
        }
      ],
      "name": "MintToken",
      "type": "event"
    },
    {
      "anonymous": false,
      "inputs": [
        {
          "indexed": true,
          "internalType": "address",
          "name": "from",
          "type": "address"
        },
        {
          "indexed": true,
          "internalType": "uint256",
          "name": "amount",
          "type": "uint256"
        },
        {
          "indexed": true,
          "internalType": "uint256",
          "name": "time",
          "type": "uint256"
        }
      ],
      "name": "Withdraw",
      "type": "event"
    },
    {
      "anonymous": false,
      "inputs": [
        {
          "indexed": true,
          "internalType": "address",
          "name": "from",
          "type": "address"
        },
        {
          "indexed": true,
          "internalType": "uint256",
          "name": "tokenId",
          "type": "uint256"
        },
        {
          "indexed": true,
          "internalType": "uint256",
          "name": "time",
          "type": "uint256"
        }
      ],
      "name": "WithdrawNft",
      "type": "event"
    },
    {
      "inputs": [],
      "name": "DEFAULT_APR",
      "outputs": [
        {
          "internalType": "uint8",
          "name": "",
          "type": "uint8"
        }
      ],
      "stateMutability": "view",
      "type": "function"
    },
    {
      "inputs": [],
      "name": "DEFAULT_NFT_APR",
      "outputs": [
        {
          "internalType": "uint8",
          "name": "",
          "type": "uint8"
        }
      ],
      "stateMutability": "view",
      "type": "function"
    },
    {
      "inputs": [],
      "name": "ERC20_PER_NFT",
      "outputs": [
        {
          "internalType": "uint256",
          "name": "",
          "type": "uint256"
        }
      ],
      "stateMutability": "view",
      "type": "function"
    },
    {
      "inputs": [],
      "name": "INTERVEL_TIME_DEPOSIT_IN_SECONDS",
      "outputs": [
        {
          "internalType": "uint256",
          "name": "",
          "type": "uint256"
        }
      ],
      "stateMutability": "view",
      "type": "function"
    },
    {
      "inputs": [],
      "name": "SECONDS_IN_DAY",
      "outputs": [
        {
          "internalType": "uint256",
          "name": "",
          "type": "uint256"
        }
      ],
      "stateMutability": "view",
      "type": "function"
    },
    {
      "inputs": [],
      "name": "SECONDS_IN_HOUR",
      "outputs": [
        {
          "internalType": "uint256",
          "name": "",
          "type": "uint256"
        }
      ],
      "stateMutability": "view",
      "type": "function"
    },
    {
      "inputs": [],
      "name": "SECONDS_IN_MINUTE",
      "outputs": [
        {
          "internalType": "uint256",
          "name": "",
          "type": "uint256"
        }
      ],
      "stateMutability": "view",
      "type": "function"
    },
    {
      "inputs": [],
      "name": "SECONDS_IN_YEAR",
      "outputs": [
        {
          "internalType": "uint256",
          "name": "",
          "type": "uint256"
        }
      ],
      "stateMutability": "view",
      "type": "function"
    },
    {
      "inputs": [],
      "name": "claimReward",
      "outputs": [],
      "stateMutability": "nonpayable",
      "type": "function"
    },
    {
      "inputs": [
        {
          "internalType": "uint256",
          "name": "amount",
          "type": "uint256"
        }
      ],
      "name": "deposit",
      "outputs": [],
      "stateMutability": "nonpayable",
      "type": "function"
    },
    {
      "inputs": [
        {
          "internalType": "uint256",
          "name": "tokenId",
          "type": "uint256"
        }
      ],
      "name": "depositERC721",
      "outputs": [],
      "stateMutability": "nonpayable",
      "type": "function"
    },
    {
      "inputs": [
        {
          "internalType": "address",
          "name": "from",
          "type": "address"
        }
      ],
      "name": "getAPR",
      "outputs": [
        {
          "internalType": "uint256",
          "name": "",
          "type": "uint256"
        }
      ],
      "stateMutability": "view",
      "type": "function"
    },
    {
      "inputs": [],
      "name": "getDepositNftCount",
      "outputs": [
        {
          "internalType": "uint256[]",
          "name": "",
          "type": "uint256[]"
        }
      ],
      "stateMutability": "view",
      "type": "function"
    },
    {
      "inputs": [],
      "name": "getErc20Balance",
      "outputs": [
        {
          "internalType": "uint256",
          "name": "",
          "type": "uint256"
        }
      ],
      "stateMutability": "view",
      "type": "function"
    },
    {
      "inputs": [],
      "name": "getErc721Balance",
      "outputs": [
        {
          "internalType": "uint256[]",
          "name": "",
          "type": "uint256[]"
        }
      ],
      "stateMutability": "view",
      "type": "function"
    },
    {
      "inputs": [],
      "name": "withdraw",
      "outputs": [],
      "stateMutability": "nonpayable",
      "type": "function"
    },
    {
      "inputs": [
        {
          "internalType": "uint256",
          "name": "tokenId",
          "type": "uint256"
        }
      ],
      "name": "withdrawERC721",
      "outputs": [],
      "stateMutability": "nonpayable",
      "type": "function"
    }
  ],
  "bytecode": "0x60806040523480156200001157600080fd5b50604051620037083803806200370883398181016040528101906200003791906200012a565b81600160006101000a81548173ffffffffffffffffffffffffffffffffffffffff021916908373ffffffffffffffffffffffffffffffffffffffff160217905550806000806101000a81548173ffffffffffffffffffffffffffffffffffffffff021916908373ffffffffffffffffffffffffffffffffffffffff160217905550505062000171565b600080fd5b600073ffffffffffffffffffffffffffffffffffffffff82169050919050565b6000620000f282620000c5565b9050919050565b6200010481620000e5565b81146200011057600080fd5b50565b6000815190506200012481620000f9565b92915050565b60008060408385031215620001445762000143620000c0565b5b6000620001548582860162000113565b9250506020620001678582860162000113565b9150509250929050565b61358780620001816000396000f3fe608060405234801561001057600080fd5b506004361061010b5760003560e01c80638793f2c7116100a2578063d8a63f5911610071578063d8a63f5914610260578063ded439f01461027c578063e1041af51461029a578063eb24d10e146102b6578063f2374551146102d45761010b565b80638793f2c7146101fe5780638c9f57701461021c578063b6b55f251461023a578063b88a802f146102565761010b565b80635858b640116100de5780635858b640146101865780635dcc9391146101a457806361a52a36146101c257806372477ed4146101e05761010b565b80630b47a1a0146101105780631c5122d91461012e5780633ccfd60b1461015e5780634e4f942414610168575b600080fd5b6101186102f2565b60405161012591906129a6565b60405180910390f35b61014860048036038101906101439190612a24565b6102f9565b60405161015591906129a6565b60405180910390f35b610166610342565b005b6101706103d9565b60405161017d9190612b0f565b60405180910390f35b61018e6105ff565b60405161019b9190612b4d565b60405180910390f35b6101ac610604565b6040516101b991906129a6565b60405180910390f35b6101ca61060c565b6040516101d791906129a6565b60405180910390f35b6101e8610613565b6040516101f59190612b4d565b60405180910390f35b610206610618565b60405161021391906129a6565b60405180910390f35b61022461061e565b6040516102319190612b0f565b60405180910390f35b610254600480360381019061024f9190612b94565b6108c0565b005b61025e610bce565b005b61027a60048036038101906102759190612b94565b610e0a565b005b61028461138b565b60405161029191906129a6565b60405180910390f35b6102b460048036038101906102af9190612b94565b61139c565b005b6102be6117dc565b6040516102cb91906129a6565b60405180910390f35b6102dc61187f565b6040516102e991906129a6565b60405180910390f35b620f424081565b6000600260008373ffffffffffffffffffffffffffffffffffffffff1673ffffffffffffffffffffffffffffffffffffffff168152602001908152602001600020549050919050565b600061034d33611884565b9050600560006002600581111561036757610366612bc1565b5b60ff1660ff168152602001908152602001600020600081548092919061038c90612c1f565b919050555042813373ffffffffffffffffffffffffffffffffffffffff167ff279e6a1f5e320cca91135676d9cb6e44ca8a08c0b88342bcdb1144f6511b56860405160405180910390a450565b606060003390506000600360008373ffffffffffffffffffffffffffffffffffffffff1673ffffffffffffffffffffffffffffffffffffffff1681526020019081526020016000206006015467ffffffffffffffff81111561043e5761043d612c67565b5b60405190808252806020026020018201604052801561046c5781602001602082028036833780820191505090505b5090506000805b60008054906101000a900473ffffffffffffffffffffffffffffffffffffffff1673ffffffffffffffffffffffffffffffffffffffff166318160ddd6040518163ffffffff1660e01b8152600401602060405180830381865afa1580156104de573d6000803e3d6000fd5b505050506040513d601f19601f820116820180604052508101906105029190612cab565b8110156105f5578373ffffffffffffffffffffffffffffffffffffffff166004600083815260200190815260200160002060009054906101000a900473ffffffffffffffffffffffffffffffffffffffff1673ffffffffffffffffffffffffffffffffffffffff160361059e578083838151811061058357610582612cd8565b5b602002602001018181525050818061059a90612c1f565b9250505b600360008573ffffffffffffffffffffffffffffffffffffffff1673ffffffffffffffffffffffffffffffffffffffff168152602001908152602001600020600601548203156105f5578080600101915050610473565b5081935050505090565b600881565b6301e1338081565b6201518081565b600281565b610e1081565b606060008060009054906101000a900473ffffffffffffffffffffffffffffffffffffffff1673ffffffffffffffffffffffffffffffffffffffff166370a08231336040518263ffffffff1660e01b815260040161067c9190612d16565b602060405180830381865afa158015610699573d6000803e3d6000fd5b505050506040513d601f19601f820116820180604052508101906106bd9190612cab565b905060008167ffffffffffffffff8111156106db576106da612c67565b5b6040519080825280602002602001820160405280156107095781602001602082028036833780820191505090505b5090506000805b60008054906101000a900473ffffffffffffffffffffffffffffffffffffffff1673ffffffffffffffffffffffffffffffffffffffff166318160ddd6040518163ffffffff1660e01b8152600401602060405180830381865afa15801561077b573d6000803e3d6000fd5b505050506040513d601f19601f8201168201806040525081019061079f9190612cab565b8110156108b6573373ffffffffffffffffffffffffffffffffffffffff1660008054906101000a900473ffffffffffffffffffffffffffffffffffffffff1673ffffffffffffffffffffffffffffffffffffffff16636352211e836040518263ffffffff1660e01b815260040161081691906129a6565b602060405180830381865afa158015610833573d6000803e3d6000fd5b505050506040513d601f19601f820116820180604052508101906108579190612d46565b73ffffffffffffffffffffffffffffffffffffffff16036108a1578083838151811061088657610885612cd8565b5b602002602001018181525050818061089d90612c1f565b9250505b838203156108b6578080600101915050610710565b5081935050505090565b600033905060006108d0826102f9565b0361091e57600860ff16600260008373ffffffffffffffffffffffffffffffffffffffff1673ffffffffffffffffffffffffffffffffffffffff168152602001908152602001600020819055505b600160009054906101000a900473ffffffffffffffffffffffffffffffffffffffff1673ffffffffffffffffffffffffffffffffffffffff1663313ce5676040518163ffffffff1660e01b8152600401602060405180830381865afa15801561098b573d6000803e3d6000fd5b505050506040513d601f19601f820116820180604052508101906109af9190612d9f565b600a6109bb9190612eff565b826109c69190612f4a565b9150600160009054906101000a900473ffffffffffffffffffffffffffffffffffffffff1673ffffffffffffffffffffffffffffffffffffffff166323b872dd8230856040518463ffffffff1660e01b8152600401610a2793929190612f8c565b6020604051808303816000875af1158015610a46573d6000803e3d6000fd5b505050506040513d601f19601f82011682018060405250810190610a6a9190612ffb565b50610a758183611b25565b60405180606001604052808273ffffffffffffffffffffffffffffffffffffffff16815260200183815260200142815250600760006005600060016005811115610ac257610ac1612bc1565b5b60ff1660ff16815260200190815260200160002054815260200190815260200160002060008201518160000160006101000a81548173ffffffffffffffffffffffffffffffffffffffff021916908373ffffffffffffffffffffffffffffffffffffffff16021790555060208201518160010155604082015181600201559050506005600060016005811115610b5b57610b5a612bc1565b5b60ff1660ff1681526020019081526020016000206000815480929190610b8090612c1f565b919050555042828273ffffffffffffffffffffffffffffffffffffffff167f90890809c654f11d6e72a28fa60149770a0d11ec6c92319d6ceb2bb0a4ea1a1560405160405180910390a45050565b6000610bd9336124b9565b9050600160009054906101000a900473ffffffffffffffffffffffffffffffffffffffff1673ffffffffffffffffffffffffffffffffffffffff1663174e31c433836040518363ffffffff1660e01b8152600401610c38929190613028565b600060405180830381600087803b158015610c5257600080fd5b505af1158015610c66573d6000803e3d6000fd5b505050506000600c60003373ffffffffffffffffffffffffffffffffffffffff1673ffffffffffffffffffffffffffffffffffffffff1681526020019081526020016000206001018190555060405180606001604052803373ffffffffffffffffffffffffffffffffffffffff16815260200182815260200142815250600b60006005600060036005811115610cff57610cfe612bc1565b5b60ff1660ff16815260200190815260200160002054815260200190815260200160002060008201518160000160006101000a81548173ffffffffffffffffffffffffffffffffffffffff021916908373ffffffffffffffffffffffffffffffffffffffff16021790555060208201518160010155604082015181600201559050506005600060036005811115610d9857610d97612bc1565b5b60ff1660ff1681526020019081526020016000206000815480929190610dbd90612c1f565b919050555042813373ffffffffffffffffffffffffffffffffffffffff167f34fcbac0073d7c3d388e51312faf357774904998eeb8fca628b9e6f65ee1cbf760405160405180910390a450565b3360008060009054906101000a900473ffffffffffffffffffffffffffffffffffffffff1673ffffffffffffffffffffffffffffffffffffffff166370a08231836040518263ffffffff1660e01b8152600401610e679190612d16565b602060405180830381865afa158015610e84573d6000803e3d6000fd5b505050506040513d601f19601f82011682018060405250810190610ea89190612cab565b118015610f5b57506000600360008373ffffffffffffffffffffffffffffffffffffffff1673ffffffffffffffffffffffffffffffffffffffff168152602001908152602001600020600501541480610f5a57504260026005610f0b9190612f4a565b600360008473ffffffffffffffffffffffffffffffffffffffff1673ffffffffffffffffffffffffffffffffffffffff16815260200190815260200160002060050154610f589190613051565b105b5b610f9a576040517f08c379a0000000000000000000000000000000000000000000000000000000008152600401610f9190613108565b60405180910390fd5b3373ffffffffffffffffffffffffffffffffffffffff1660008054906101000a900473ffffffffffffffffffffffffffffffffffffffff1673ffffffffffffffffffffffffffffffffffffffff16636352211e846040518263ffffffff1660e01b815260040161100a91906129a6565b602060405180830381865afa158015611027573d6000803e3d6000fd5b505050506040513d601f19601f8201168201806040525081019061104b9190612d46565b73ffffffffffffffffffffffffffffffffffffffff16146110a1576040517f08c379a00000000000000000000000000000000000000000000000000000000081526004016110989061319a565b60405180910390fd5b60008054906101000a900473ffffffffffffffffffffffffffffffffffffffff1673ffffffffffffffffffffffffffffffffffffffff166347e7ef2430846040518363ffffffff1660e01b81526004016110fc929190613028565b600060405180830381600087803b15801561111657600080fd5b505af115801561112a573d6000803e3d6000fd5b50505050600260ff16600260003373ffffffffffffffffffffffffffffffffffffffff1673ffffffffffffffffffffffffffffffffffffffff16815260200190815260200160002060008282546111819190613051565b92505081905550600360003373ffffffffffffffffffffffffffffffffffffffff1673ffffffffffffffffffffffffffffffffffffffff16815260200190815260200160002060060160008154809291906111db90612c1f565b9190505550336004600084815260200190815260200160002060006101000a81548173ffffffffffffffffffffffffffffffffffffffff021916908373ffffffffffffffffffffffffffffffffffffffff16021790555060405180606001604052803373ffffffffffffffffffffffffffffffffffffffff1681526020018381526020014281525060086000600560006004600581111561127f5761127e612bc1565b5b60ff1660ff16815260200190815260200160002054815260200190815260200160002060008201518160000160006101000a81548173ffffffffffffffffffffffffffffffffffffffff021916908373ffffffffffffffffffffffffffffffffffffffff1602179055506020820151816001015560408201518160020155905050600560006004600581111561131857611317612bc1565b5b60ff1660ff168152602001908152602001600020600081548092919061133d90612c1f565b919050555042823373ffffffffffffffffffffffffffffffffffffffff167f7ad89f71bfd411c34e67f1593de34f11c471d79fdb7ed6adadf0253814be9f3660405160405180910390a45050565b600260056113999190612f4a565b81565b33813073ffffffffffffffffffffffffffffffffffffffff1660008054906101000a900473ffffffffffffffffffffffffffffffffffffffff1673ffffffffffffffffffffffffffffffffffffffff16636352211e836040518263ffffffff1660e01b815260040161140e91906129a6565b602060405180830381865afa15801561142b573d6000803e3d6000fd5b505050506040513d601f19601f8201168201806040525081019061144f9190612d46565b73ffffffffffffffffffffffffffffffffffffffff161480156114d057508173ffffffffffffffffffffffffffffffffffffffff166004600083815260200190815260200160002060009054906101000a900473ffffffffffffffffffffffffffffffffffffffff1673ffffffffffffffffffffffffffffffffffffffff16145b61150f576040517f08c379a00000000000000000000000000000000000000000000000000000000081526004016115069061322c565b60405180910390fd5b60008054906101000a900473ffffffffffffffffffffffffffffffffffffffff1673ffffffffffffffffffffffffffffffffffffffff1663f3fef3a333856040518363ffffffff1660e01b815260040161156a929190613028565b600060405180830381600087803b15801561158457600080fd5b505af1158015611598573d6000803e3d6000fd5b50505050600260ff16600260003373ffffffffffffffffffffffffffffffffffffffff1673ffffffffffffffffffffffffffffffffffffffff16815260200190815260200160002060008282546115ef919061324c565b92505081905550600360003373ffffffffffffffffffffffffffffffffffffffff1673ffffffffffffffffffffffffffffffffffffffff168152602001908152602001600020600601600081548092919061164990613280565b91905055506004600084815260200190815260200160002060006101000a81549073ffffffffffffffffffffffffffffffffffffffff021916905560405180606001604052803373ffffffffffffffffffffffffffffffffffffffff16815260200184815260200142815250600a6000600560006005808111156116d0576116cf612bc1565b5b60ff1660ff16815260200190815260200160002054815260200190815260200160002060008201518160000160006101000a81548173ffffffffffffffffffffffffffffffffffffffff021916908373ffffffffffffffffffffffffffffffffffffffff16021790555060208201518160010155604082015181600201559050506005600060058081111561176857611767612bc1565b5b60ff1660ff168152602001908152602001600020600081548092919061178d90612c1f565b919050555042833373ffffffffffffffffffffffffffffffffffffffff167fcae6e85b835fcf864c07fb3cd4909bf840bf5114adf6a9f2553470fe7ca78ddc60405160405180910390a4505050565b6000600160009054906101000a900473ffffffffffffffffffffffffffffffffffffffff1673ffffffffffffffffffffffffffffffffffffffff166370a08231336040518263ffffffff1660e01b81526004016118399190612d16565b602060405180830381865afa158015611856573d6000803e3d6000fd5b505050506040513d601f19601f8201168201806040525081019061187a9190612cab565b905090565b600281565b600080611890836124b9565b9050600160009054906101000a900473ffffffffffffffffffffffffffffffffffffffff1673ffffffffffffffffffffffffffffffffffffffff1663174e31c433836040518363ffffffff1660e01b81526004016118ef929190613028565b600060405180830381600087803b15801561190957600080fd5b505af115801561191d573d6000803e3d6000fd5b50505050600160009054906101000a900473ffffffffffffffffffffffffffffffffffffffff1673ffffffffffffffffffffffffffffffffffffffff16635f7807a484600360008773ffffffffffffffffffffffffffffffffffffffff1673ffffffffffffffffffffffffffffffffffffffff168152602001908152602001600020600101546040518363ffffffff1660e01b81526004016119c0929190613028565b600060405180830381600087803b1580156119da57600080fd5b505af11580156119ee573d6000803e3d6000fd5b50505050600081600360008673ffffffffffffffffffffffffffffffffffffffff1673ffffffffffffffffffffffffffffffffffffffff16815260200190815260200160002060010154611a429190613051565b90506000600c60003373ffffffffffffffffffffffffffffffffffffffff1673ffffffffffffffffffffffffffffffffffffffff168152602001908152602001600020600101819055506000600360008673ffffffffffffffffffffffffffffffffffffffff1673ffffffffffffffffffffffffffffffffffffffff1681526020019081526020016000206001018190555042600360008673ffffffffffffffffffffffffffffffffffffffff1673ffffffffffffffffffffffffffffffffffffffff168152602001908152602001600020600401819055508092505050919050565b816000600360008373ffffffffffffffffffffffffffffffffffffffff1673ffffffffffffffffffffffffffffffffffffffff168152602001908152602001600020600201541480611bd057504260026005611b819190612f4a565b600360008473ffffffffffffffffffffffffffffffffffffffff1673ffffffffffffffffffffffffffffffffffffffff16815260200190815260200160002060020154611bce9190613051565b105b611c0f576040517f08c379a0000000000000000000000000000000000000000000000000000000008152600401611c069061331b565b60405180910390fd5b6000600c60008573ffffffffffffffffffffffffffffffffffffffff1673ffffffffffffffffffffffffffffffffffffffff1681526020019081526020016000206000015403611ca55742600c60008573ffffffffffffffffffffffffffffffffffffffff1673ffffffffffffffffffffffffffffffffffffffff16815260200190815260200160002060000181905550611e1a565b6000600c60008573ffffffffffffffffffffffffffffffffffffffff1673ffffffffffffffffffffffffffffffffffffffff1681526020019081526020016000206000015442611cf5919061324c565b905060006301e133806064611d0a9190612f4a565b82611d14876102f9565b600360008973ffffffffffffffffffffffffffffffffffffffff1673ffffffffffffffffffffffffffffffffffffffff16815260200190815260200160002060010154611d619190612f4a565b611d6b9190612f4a565b611d75919061336a565b905042600c60008773ffffffffffffffffffffffffffffffffffffffff1673ffffffffffffffffffffffffffffffffffffffff1681526020019081526020016000206000018190555080600c60008773ffffffffffffffffffffffffffffffffffffffff1673ffffffffffffffffffffffffffffffffffffffff1681526020019081526020016000206001016000828254611e109190613051565b9250508190555050505b81600360008573ffffffffffffffffffffffffffffffffffffffff1673ffffffffffffffffffffffffffffffffffffffff1681526020019081526020016000206001016000828254611e6c9190613051565b9250508190555042600360008573ffffffffffffffffffffffffffffffffffffffff1673ffffffffffffffffffffffffffffffffffffffff16815260200190815260200160002060020181905550600160009054906101000a900473ffffffffffffffffffffffffffffffffffffffff1673ffffffffffffffffffffffffffffffffffffffff1663313ce5676040518163ffffffff1660e01b8152600401602060405180830381865afa158015611f27573d6000803e3d6000fd5b505050506040513d601f19601f82011682018060405250810190611f4b9190612d9f565b600a611f579190612eff565b620f4240611f636103d9565b5160008054906101000a900473ffffffffffffffffffffffffffffffffffffffff1673ffffffffffffffffffffffffffffffffffffffff166370a08231876040518263ffffffff1660e01b8152600401611fbd9190612d16565b602060405180830381865afa158015611fda573d6000803e3d6000fd5b505050506040513d601f19601f82011682018060405250810190611ffe9190612cab565b6120089190613051565b6120129190612f4a565b61201c9190612f4a565b600360008573ffffffffffffffffffffffffffffffffffffffff1673ffffffffffffffffffffffffffffffffffffffff16815260200190815260200160002060010154106124b4576000600160009054906101000a900473ffffffffffffffffffffffffffffffffffffffff1673ffffffffffffffffffffffffffffffffffffffff1663313ce5676040518163ffffffff1660e01b8152600401602060405180830381865afa1580156120d3573d6000803e3d6000fd5b505050506040513d601f19601f820116820180604052508101906120f79190612d9f565b600a6121039190612eff565b620f424061210f6103d9565b5160008054906101000a900473ffffffffffffffffffffffffffffffffffffffff1673ffffffffffffffffffffffffffffffffffffffff166370a08231886040518263ffffffff1660e01b81526004016121699190612d16565b602060405180830381865afa158015612186573d6000803e3d6000fd5b505050506040513d601f19601f820116820180604052508101906121aa9190612cab565b6121b49190613051565b6121be9190612f4a565b6121c89190612f4a565b600360008673ffffffffffffffffffffffffffffffffffffffff1673ffffffffffffffffffffffffffffffffffffffff16815260200190815260200160002060010154612215919061324c565b9050600160009054906101000a900473ffffffffffffffffffffffffffffffffffffffff1673ffffffffffffffffffffffffffffffffffffffff1663313ce5676040518163ffffffff1660e01b8152600401602060405180830381865afa158015612284573d6000803e3d6000fd5b505050506040513d601f19601f820116820180604052508101906122a89190612d9f565b600a6122b49190612eff565b620f42406122c29190612f4a565b81106124b25760005b600160009054906101000a900473ffffffffffffffffffffffffffffffffffffffff1673ffffffffffffffffffffffffffffffffffffffff1663313ce5676040518163ffffffff1660e01b8152600401602060405180830381865afa158015612338573d6000803e3d6000fd5b505050506040513d601f19601f8201168201806040525081019061235c9190612d9f565b600a6123689190612eff565b620f42406123769190612f4a565b82612381919061336a565b8110156124b05760008054906101000a900473ffffffffffffffffffffffffffffffffffffffff1673ffffffffffffffffffffffffffffffffffffffff166340c10f198660008054906101000a900473ffffffffffffffffffffffffffffffffffffffff1673ffffffffffffffffffffffffffffffffffffffff166318160ddd6040518163ffffffff1660e01b8152600401602060405180830381865afa158015612430573d6000803e3d6000fd5b505050506040513d601f19601f820116820180604052508101906124549190612cab565b6040518363ffffffff1660e01b8152600401612471929190613028565b600060405180830381600087803b15801561248b57600080fd5b505af115801561249f573d6000803e3d6000fd5b5050505080806001019150506122cb565b505b505b505050565b60008160006124c7826102f9565b11612507576040517f08c379a00000000000000000000000000000000000000000000000000000000081526004016124fe9061340d565b60405180910390fd5b826000600360008373ffffffffffffffffffffffffffffffffffffffff1673ffffffffffffffffffffffffffffffffffffffff1681526020019081526020016000206002015414806125b2575042600260056125639190612f4a565b600360008473ffffffffffffffffffffffffffffffffffffffff1673ffffffffffffffffffffffffffffffffffffffff168152602001908152602001600020600201546125b09190613051565b105b6125f1576040517f08c379a00000000000000000000000000000000000000000000000000000000081526004016125e89061331b565b60405180910390fd5b836000600360008373ffffffffffffffffffffffffffffffffffffffff1673ffffffffffffffffffffffffffffffffffffffff16815260200190815260200160002060040154148061269c5750426002600561264d9190612f4a565b600360008473ffffffffffffffffffffffffffffffffffffffff1673ffffffffffffffffffffffffffffffffffffffff1681526020019081526020016000206004015461269a9190613051565b105b6126db576040517f08c379a00000000000000000000000000000000000000000000000000000000081526004016126d29061349f565b60405180910390fd5b846000600360008373ffffffffffffffffffffffffffffffffffffffff1673ffffffffffffffffffffffffffffffffffffffff168152602001908152602001600020600301541480612786575042600260056127379190612f4a565b600360008473ffffffffffffffffffffffffffffffffffffffff1673ffffffffffffffffffffffffffffffffffffffff168152602001908152602001600020600301546127849190613051565b105b6127c5576040517f08c379a00000000000000000000000000000000000000000000000000000000081526004016127bc90613531565b60405180910390fd5b60004290506000600c60008973ffffffffffffffffffffffffffffffffffffffff1673ffffffffffffffffffffffffffffffffffffffff168152602001908152602001600020600001548261281a919061324c565b905060006301e13380606461282f9190612f4a565b826128398b6102f9565b600360008d73ffffffffffffffffffffffffffffffffffffffff1673ffffffffffffffffffffffffffffffffffffffff168152602001908152602001600020600101546128869190612f4a565b6128909190612f4a565b61289a919061336a565b905080600c60008b73ffffffffffffffffffffffffffffffffffffffff1673ffffffffffffffffffffffffffffffffffffffff16815260200190815260200160002060010160008282546128ee9190613051565b9250508190555082600360008b73ffffffffffffffffffffffffffffffffffffffff1673ffffffffffffffffffffffffffffffffffffffff16815260200190815260200160002060030181905550600c60008a73ffffffffffffffffffffffffffffffffffffffff1673ffffffffffffffffffffffffffffffffffffffff16815260200190815260200160002060010154975050505050505050919050565b6000819050919050565b6129a08161298d565b82525050565b60006020820190506129bb6000830184612997565b92915050565b600080fd5b600073ffffffffffffffffffffffffffffffffffffffff82169050919050565b60006129f1826129c6565b9050919050565b612a01816129e6565b8114612a0c57600080fd5b50565b600081359050612a1e816129f8565b92915050565b600060208284031215612a3a57612a396129c1565b5b6000612a4884828501612a0f565b91505092915050565b600081519050919050565b600082825260208201905092915050565b6000819050602082019050919050565b612a868161298d565b82525050565b6000612a988383612a7d565b60208301905092915050565b6000602082019050919050565b6000612abc82612a51565b612ac68185612a5c565b9350612ad183612a6d565b8060005b83811015612b02578151612ae98882612a8c565b9750612af483612aa4565b925050600181019050612ad5565b5085935050505092915050565b60006020820190508181036000830152612b298184612ab1565b905092915050565b600060ff82169050919050565b612b4781612b31565b82525050565b6000602082019050612b626000830184612b3e565b92915050565b612b718161298d565b8114612b7c57600080fd5b50565b600081359050612b8e81612b68565b92915050565b600060208284031215612baa57612ba96129c1565b5b6000612bb884828501612b7f565b91505092915050565b7f4e487b7100000000000000000000000000000000000000000000000000000000600052602160045260246000fd5b7f4e487b7100000000000000000000000000000000000000000000000000000000600052601160045260246000fd5b6000612c2a8261298d565b91507fffffffffffffffffffffffffffffffffffffffffffffffffffffffffffffffff8203612c5c57612c5b612bf0565b5b600182019050919050565b7f4e487b7100000000000000000000000000000000000000000000000000000000600052604160045260246000fd5b600081519050612ca581612b68565b92915050565b600060208284031215612cc157612cc06129c1565b5b6000612ccf84828501612c96565b91505092915050565b7f4e487b7100000000000000000000000000000000000000000000000000000000600052603260045260246000fd5b612d10816129e6565b82525050565b6000602082019050612d2b6000830184612d07565b92915050565b600081519050612d40816129f8565b92915050565b600060208284031215612d5c57612d5b6129c1565b5b6000612d6a84828501612d31565b91505092915050565b612d7c81612b31565b8114612d8757600080fd5b50565b600081519050612d9981612d73565b92915050565b600060208284031215612db557612db46129c1565b5b6000612dc384828501612d8a565b91505092915050565b60008160011c9050919050565b6000808291508390505b6001851115612e2357808604811115612dff57612dfe612bf0565b5b6001851615612e0e5780820291505b8081029050612e1c85612dcc565b9450612de3565b94509492505050565b600082612e3c5760019050612ef8565b81612e4a5760009050612ef8565b8160018114612e605760028114612e6a57612e99565b6001915050612ef8565b60ff841115612e7c57612e7b612bf0565b5b8360020a915084821115612e9357612e92612bf0565b5b50612ef8565b5060208310610133831016604e8410600b8410161715612ece5782820a905083811115612ec957612ec8612bf0565b5b612ef8565b612edb8484846001612dd9565b92509050818404811115612ef257612ef1612bf0565b5b81810290505b9392505050565b6000612f0a8261298d565b9150612f1583612b31565b9250612f427fffffffffffffffffffffffffffffffffffffffffffffffffffffffffffffffff8484612e2c565b905092915050565b6000612f558261298d565b9150612f608361298d565b9250828202612f6e8161298d565b91508282048414831517612f8557612f84612bf0565b5b5092915050565b6000606082019050612fa16000830186612d07565b612fae6020830185612d07565b612fbb6040830184612997565b949350505050565b60008115159050919050565b612fd881612fc3565b8114612fe357600080fd5b50565b600081519050612ff581612fcf565b92915050565b600060208284031215613011576130106129c1565b5b600061301f84828501612fe6565b91505092915050565b600060408201905061303d6000830185612d07565b61304a6020830184612997565b9392505050565b600061305c8261298d565b91506130678361298d565b925082820190508082111561307f5761307e612bf0565b5b92915050565b600082825260208201905092915050565b7f4150523a204465706f736974204e465420696e74657276616c206973206e6f7460008201527f2070617373656400000000000000000000000000000000000000000000000000602082015250565b60006130f2602783613085565b91506130fd82613096565b604082019050919050565b60006020820190508181036000830152613121816130e5565b9050919050565b7f4150523a20596f7520617265206e6f74206f776e6572206f662074686973207460008201527f6f6b656e00000000000000000000000000000000000000000000000000000000602082015250565b6000613184602483613085565b915061318f82613128565b604082019050919050565b600060208201905081810360008301526131b381613177565b9050919050565b7f4150523a207468697320636f6e747261637420617265206e6f74206f776e657260008201527f206f66207468697320746f6b656e000000000000000000000000000000000000602082015250565b6000613216602e83613085565b9150613221826131ba565b604082019050919050565b6000602082019050818103600083015261324581613209565b9050919050565b60006132578261298d565b91506132628361298d565b925082820390508181111561327a57613279612bf0565b5b92915050565b600061328b8261298d565b91506000820361329e5761329d612bf0565b5b600182039050919050565b7f4150523a204465706f73697420696e74657276616c206973206e6f742070617360008201527f7365640000000000000000000000000000000000000000000000000000000000602082015250565b6000613305602383613085565b9150613310826132a9565b604082019050919050565b60006020820190508181036000830152613334816132f8565b9050919050565b7f4e487b7100000000000000000000000000000000000000000000000000000000600052601260045260246000fd5b60006133758261298d565b91506133808361298d565b9250826133905761338f61333b565b5b828204905092915050565b7f41646472657373206973206e6f7420657869737420696e20746865207379737460008201527f656d000000000000000000000000000000000000000000000000000000000000602082015250565b60006133f7602283613085565b91506134028261339b565b604082019050919050565b60006020820190508181036000830152613426816133ea565b9050919050565b7f4150523a20576974686472617720696e74657276616c206973206e6f7420706160008201527f7373656400000000000000000000000000000000000000000000000000000000602082015250565b6000613489602483613085565b91506134948261342d565b604082019050919050565b600060208201905081810360008301526134b88161347c565b9050919050565b7f4150523a20436c61696d20696e74657276616c206973206e6f7420706173736560008201527f6400000000000000000000000000000000000000000000000000000000000000602082015250565b600061351b602183613085565b9150613526826134bf565b604082019050919050565b6000602082019050818103600083015261354a8161350e565b905091905056fea26469706673582212208fd11b88ebf62e6ba2bad17c19c638514a825d60bf8eaefa84ee3c9b94f3e0ab64736f6c63430008180033",
  "linkReferences": {},
  "deployedLinkReferences": {}
}