{
  "_format": "hh-sol-artifact-1",
  "contractName": "ERC20Token",
  "sourceName": "contracts/ERC20Token.sol",
  "abi": [
    {
      "inputs": [
        {
          "internalType": "uint256",
          "name": "total",
          "type": "uint256"
        }
      ],
      "stateMutability": "nonpayable",
      "type": "constructor"
    },
    {
      "inputs": [
        {
          "internalType": "address",
          "name": "spender",
          "type": "address"
        },
        {
          "internalType": "uint256",
          "name": "allowance",
          "type": "uint256"
        },
        {
          "internalType": "uint256",
          "name": "needed",
          "type": "uint256"
        }
      ],
      "name": "ERC20InsufficientAllowance",
      "type": "error"
    },
    {
      "inputs": [
        {
          "internalType": "address",
          "name": "sender",
          "type": "address"
        },
        {
          "internalType": "uint256",
          "name": "balance",
          "type": "uint256"
        },
        {
          "internalType": "uint256",
          "name": "needed",
          "type": "uint256"
        }
      ],
      "name": "ERC20InsufficientBalance",
      "type": "error"
    },
    {
      "inputs": [
        {
          "internalType": "address",
          "name": "approver",
          "type": "address"
        }
      ],
      "name": "ERC20InvalidApprover",
      "type": "error"
    },
    {
      "inputs": [
        {
          "internalType": "address",
          "name": "receiver",
          "type": "address"
        }
      ],
      "name": "ERC20InvalidReceiver",
      "type": "error"
    },
    {
      "inputs": [
        {
          "internalType": "address",
          "name": "sender",
          "type": "address"
        }
      ],
      "name": "ERC20InvalidSender",
      "type": "error"
    },
    {
      "inputs": [
        {
          "internalType": "address",
          "name": "spender",
          "type": "address"
        }
      ],
      "name": "ERC20InvalidSpender",
      "type": "error"
    },
    {
      "inputs": [
        {
          "internalType": "address",
          "name": "owner",
          "type": "address"
        }
      ],
      "name": "OwnableInvalidOwner",
      "type": "error"
    },
    {
      "inputs": [
        {
          "internalType": "address",
          "name": "account",
          "type": "address"
        }
      ],
      "name": "OwnableUnauthorizedAccount",
      "type": "error"
    },
    {
      "anonymous": false,
      "inputs": [
        {
          "indexed": true,
          "internalType": "address",
          "name": "owner",
          "type": "address"
        },
        {
          "indexed": true,
          "internalType": "address",
          "name": "spender",
          "type": "address"
        },
        {
          "indexed": false,
          "internalType": "uint256",
          "name": "value",
          "type": "uint256"
        }
      ],
      "name": "Approval",
      "type": "event"
    },
    {
      "anonymous": false,
      "inputs": [
        {
          "indexed": true,
          "internalType": "address",
          "name": "previousOwner",
          "type": "address"
        },
        {
          "indexed": true,
          "internalType": "address",
          "name": "newOwner",
          "type": "address"
        }
      ],
      "name": "OwnershipTransferred",
      "type": "event"
    },
    {
      "anonymous": false,
      "inputs": [
        {
          "indexed": true,
          "internalType": "address",
          "name": "from",
          "type": "address"
        },
        {
          "indexed": true,
          "internalType": "address",
          "name": "to",
          "type": "address"
        },
        {
          "indexed": false,
          "internalType": "uint256",
          "name": "value",
          "type": "uint256"
        }
      ],
      "name": "Transfer",
      "type": "event"
    },
    {
      "inputs": [
        {
          "internalType": "address",
          "name": "owner",
          "type": "address"
        },
        {
          "internalType": "address",
          "name": "spender",
          "type": "address"
        }
      ],
      "name": "allowance",
      "outputs": [
        {
          "internalType": "uint256",
          "name": "",
          "type": "uint256"
        }
      ],
      "stateMutability": "view",
      "type": "function"
    },
    {
      "inputs": [
        {
          "internalType": "address",
          "name": "spender",
          "type": "address"
        },
        {
          "internalType": "uint256",
          "name": "value",
          "type": "uint256"
        }
      ],
      "name": "approve",
      "outputs": [
        {
          "internalType": "bool",
          "name": "",
          "type": "bool"
        }
      ],
      "stateMutability": "nonpayable",
      "type": "function"
    },
    {
      "inputs": [
        {
          "internalType": "address",
          "name": "operator",
          "type": "address"
        }
      ],
      "name": "approveForTransfer",
      "outputs": [],
      "stateMutability": "nonpayable",
      "type": "function"
    },
    {
      "inputs": [
        {
          "internalType": "address",
          "name": "account",
          "type": "address"
        }
      ],
      "name": "balanceOf",
      "outputs": [
        {
          "internalType": "uint256",
          "name": "",
          "type": "uint256"
        }
      ],
      "stateMutability": "view",
      "type": "function"
    },
    {
      "inputs": [
        {
          "internalType": "address",
          "name": "to",
          "type": "address"
        },
        {
          "internalType": "uint256",
          "name": "amount",
          "type": "uint256"
        }
      ],
      "name": "claimReward",
      "outputs": [],
      "stateMutability": "nonpayable",
      "type": "function"
    },
    {
      "inputs": [],
      "name": "decimals",
      "outputs": [
        {
          "internalType": "uint8",
          "name": "",
          "type": "uint8"
        }
      ],
      "stateMutability": "view",
      "type": "function"
    },
    {
      "inputs": [
        {
          "internalType": "uint256",
          "name": "amount",
          "type": "uint256"
        }
      ],
      "name": "faucet",
      "outputs": [],
      "stateMutability": "nonpayable",
      "type": "function"
    },
    {
      "inputs": [],
      "name": "name",
      "outputs": [
        {
          "internalType": "string",
          "name": "",
          "type": "string"
        }
      ],
      "stateMutability": "view",
      "type": "function"
    },
    {
      "inputs": [],
      "name": "owner",
      "outputs": [
        {
          "internalType": "address",
          "name": "",
          "type": "address"
        }
      ],
      "stateMutability": "view",
      "type": "function"
    },
    {
      "inputs": [],
      "name": "renounceOwnership",
      "outputs": [],
      "stateMutability": "nonpayable",
      "type": "function"
    },
    {
      "inputs": [],
      "name": "symbol",
      "outputs": [
        {
          "internalType": "string",
          "name": "",
          "type": "string"
        }
      ],
      "stateMutability": "view",
      "type": "function"
    },
    {
      "inputs": [],
      "name": "totalSupply",
      "outputs": [
        {
          "internalType": "uint256",
          "name": "",
          "type": "uint256"
        }
      ],
      "stateMutability": "view",
      "type": "function"
    },
    {
      "inputs": [
        {
          "internalType": "address",
          "name": "to",
          "type": "address"
        },
        {
          "internalType": "uint256",
          "name": "value",
          "type": "uint256"
        }
      ],
      "name": "transfer",
      "outputs": [
        {
          "internalType": "bool",
          "name": "",
          "type": "bool"
        }
      ],
      "stateMutability": "nonpayable",
      "type": "function"
    },
    {
      "inputs": [
        {
          "internalType": "address",
          "name": "from",
          "type": "address"
        },
        {
          "internalType": "address",
          "name": "to",
          "type": "address"
        },
        {
          "internalType": "uint256",
          "name": "value",
          "type": "uint256"
        }
      ],
      "name": "transferFrom",
      "outputs": [
        {
          "internalType": "bool",
          "name": "",
          "type": "bool"
        }
      ],
      "stateMutability": "nonpayable",
      "type": "function"
    },
    {
      "inputs": [
        {
          "internalType": "address",
          "name": "newOwner",
          "type": "address"
        }
      ],
      "name": "transferOwnership",
      "outputs": [],
      "stateMutability": "nonpayable",
      "type": "function"
    },
    {
      "inputs": [
        {
          "internalType": "address",
          "name": "to",
          "type": "address"
        },
        {
          "internalType": "uint256",
          "name": "amount",
          "type": "uint256"
        }
      ],
      "name": "transferToUser",
      "outputs": [],
      "stateMutability": "nonpayable",
      "type": "function"
    }
  ],
  "bytecode": "0x60806040523480156200001157600080fd5b50604051620026c2380380620026c28339818101604052810190620000379190620007d2565b336040518060400160405280600a81526020017f4552433230546f6b656e000000000000000000000000000000000000000000008152506040518060400160405280600581526020017f45524332300000000000000000000000000000000000000000000000000000008152508160039081620000b5919062000a74565b508060049081620000c7919062000a74565b505050600073ffffffffffffffffffffffffffffffffffffffff168173ffffffffffffffffffffffffffffffffffffffff16036200013f5760006040517f1e4fbdf700000000000000000000000000000000000000000000000000000000815260040162000136919062000ba0565b60405180910390fd5b6200015081620001d160201b60201c565b506200018d33620001666200029760201b60201c565b600a62000174919062000d4d565b8362000181919062000d9e565b620002a060201b60201c565b620001c930620001a26200029760201b60201c565b600a620001b0919062000d4d565b83620001bd919062000d9e565b6200032d60201b60201c565b505062000e8f565b6000600560009054906101000a900473ffffffffffffffffffffffffffffffffffffffff16905081600560006101000a81548173ffffffffffffffffffffffffffffffffffffffff021916908373ffffffffffffffffffffffffffffffffffffffff1602179055508173ffffffffffffffffffffffffffffffffffffffff168173ffffffffffffffffffffffffffffffffffffffff167f8be0079c531659141344cd1fd0a4f28419497f9722a3daafe3b4186f6b6457e060405160405180910390a35050565b60006012905090565b600073ffffffffffffffffffffffffffffffffffffffff168273ffffffffffffffffffffffffffffffffffffffff1603620003155760006040517fec442f050000000000000000000000000000000000000000000000000000000081526004016200030c919062000ba0565b60405180910390fd5b62000329600083836200036060201b60201c565b5050565b600080620003406200059060201b60201c565b9050620003558185856200059860201b60201c565b600191505092915050565b600073ffffffffffffffffffffffffffffffffffffffff168373ffffffffffffffffffffffffffffffffffffffff1603620003b6578060026000828254620003a9919062000de9565b925050819055506200048c565b60008060008573ffffffffffffffffffffffffffffffffffffffff1673ffffffffffffffffffffffffffffffffffffffff1681526020019081526020016000205490508181101562000445578381836040517fe450d38c0000000000000000000000000000000000000000000000000000000081526004016200043c9392919062000e35565b60405180910390fd5b8181036000808673ffffffffffffffffffffffffffffffffffffffff1673ffffffffffffffffffffffffffffffffffffffff16815260200190815260200160002081905550505b600073ffffffffffffffffffffffffffffffffffffffff168273ffffffffffffffffffffffffffffffffffffffff1603620004d7578060026000828254039250508190555062000524565b806000808473ffffffffffffffffffffffffffffffffffffffff1673ffffffffffffffffffffffffffffffffffffffff168152602001908152602001600020600082825401925050819055505b8173ffffffffffffffffffffffffffffffffffffffff168373ffffffffffffffffffffffffffffffffffffffff167fddf252ad1be2c89b69c2b068fc378daa952ba7f163c4a11628f55a4df523b3ef8360405162000583919062000e72565b60405180910390a3505050565b600033905090565b620005ad8383836001620005b260201b60201c565b505050565b600073ffffffffffffffffffffffffffffffffffffffff168473ffffffffffffffffffffffffffffffffffffffff1603620006275760006040517fe602df050000000000000000000000000000000000000000000000000000000081526004016200061e919062000ba0565b60405180910390fd5b600073ffffffffffffffffffffffffffffffffffffffff168373ffffffffffffffffffffffffffffffffffffffff16036200069c5760006040517f94280d6200000000000000000000000000000000000000000000000000000000815260040162000693919062000ba0565b60405180910390fd5b81600160008673ffffffffffffffffffffffffffffffffffffffff1673ffffffffffffffffffffffffffffffffffffffff16815260200190815260200160002060008573ffffffffffffffffffffffffffffffffffffffff1673ffffffffffffffffffffffffffffffffffffffff1681526020019081526020016000208190555080156200078c578273ffffffffffffffffffffffffffffffffffffffff168473ffffffffffffffffffffffffffffffffffffffff167f8c5be1e5ebec7d5bd14f71427d1e84f3dd0314c0f7b2291e5b200ac8c7c3b9258460405162000783919062000e72565b60405180910390a35b50505050565b600080fd5b6000819050919050565b620007ac8162000797565b8114620007b857600080fd5b50565b600081519050620007cc81620007a1565b92915050565b600060208284031215620007eb57620007ea62000792565b5b6000620007fb84828501620007bb565b91505092915050565b600081519050919050565b7f4e487b7100000000000000000000000000000000000000000000000000000000600052604160045260246000fd5b7f4e487b7100000000000000000000000000000000000000000000000000000000600052602260045260246000fd5b600060028204905060018216806200088657607f821691505b6020821081036200089c576200089b6200083e565b5b50919050565b60008190508160005260206000209050919050565b60006020601f8301049050919050565b600082821b905092915050565b600060088302620009067fffffffffffffffffffffffffffffffffffffffffffffffffffffffffffffffff82620008c7565b620009128683620008c7565b95508019841693508086168417925050509392505050565b6000819050919050565b6000620009556200094f620009498462000797565b6200092a565b62000797565b9050919050565b6000819050919050565b620009718362000934565b6200098962000980826200095c565b848454620008d4565b825550505050565b600090565b620009a062000991565b620009ad81848462000966565b505050565b5b81811015620009d557620009c960008262000996565b600181019050620009b3565b5050565b601f82111562000a2457620009ee81620008a2565b620009f984620008b7565b8101602085101562000a09578190505b62000a2162000a1885620008b7565b830182620009b2565b50505b505050565b600082821c905092915050565b600062000a496000198460080262000a29565b1980831691505092915050565b600062000a64838362000a36565b9150826002028217905092915050565b62000a7f8262000804565b67ffffffffffffffff81111562000a9b5762000a9a6200080f565b5b62000aa782546200086d565b62000ab4828285620009d9565b600060209050601f83116001811462000aec576000841562000ad7578287015190505b62000ae3858262000a56565b86555062000b53565b601f19841662000afc86620008a2565b60005b8281101562000b265784890151825560018201915060208501945060208101905062000aff565b8683101562000b46578489015162000b42601f89168262000a36565b8355505b6001600288020188555050505b505050505050565b600073ffffffffffffffffffffffffffffffffffffffff82169050919050565b600062000b888262000b5b565b9050919050565b62000b9a8162000b7b565b82525050565b600060208201905062000bb7600083018462000b8f565b92915050565b7f4e487b7100000000000000000000000000000000000000000000000000000000600052601160045260246000fd5b60008160011c9050919050565b6000808291508390505b600185111562000c4b5780860481111562000c235762000c2262000bbd565b5b600185161562000c335780820291505b808102905062000c438562000bec565b945062000c03565b94509492505050565b60008262000c66576001905062000d39565b8162000c76576000905062000d39565b816001811462000c8f576002811462000c9a5762000cd0565b600191505062000d39565b60ff84111562000caf5762000cae62000bbd565b5b8360020a91508482111562000cc95762000cc862000bbd565b5b5062000d39565b5060208310610133831016604e8410600b841016171562000d0a5782820a90508381111562000d045762000d0362000bbd565b5b62000d39565b62000d19848484600162000bf9565b9250905081840481111562000d335762000d3262000bbd565b5b81810290505b9392505050565b600060ff82169050919050565b600062000d5a8262000797565b915062000d678362000d40565b925062000d967fffffffffffffffffffffffffffffffffffffffffffffffffffffffffffffffff848462000c54565b905092915050565b600062000dab8262000797565b915062000db88362000797565b925082820262000dc88162000797565b9150828204841483151762000de25762000de162000bbd565b5b5092915050565b600062000df68262000797565b915062000e038362000797565b925082820190508082111562000e1e5762000e1d62000bbd565b5b92915050565b62000e2f8162000797565b82525050565b600060608201905062000e4c600083018662000b8f565b62000e5b602083018562000e24565b62000e6a604083018462000e24565b949350505050565b600060208201905062000e89600083018462000e24565b92915050565b6118238062000e9f6000396000f3fe608060405234801561001057600080fd5b50600436106101005760003560e01c806370a0823111610097578063a9059cbb11610066578063a9059cbb14610289578063dd62ed3e146102b9578063ee3d079f146102e9578063f2fde38b1461030557610100565b806370a0823114610213578063715018a6146102435780638da5cb5b1461024d57806395d89b411461026b57610100565b806323b872dd116100d357806323b872dd1461018d578063313ce567146101bd57806357915897146101db5780635f7807a4146101f757610100565b806306fdde0314610105578063095ea7b314610123578063174e31c41461015357806318160ddd1461016f575b600080fd5b61010d610321565b60405161011a9190611122565b60405180910390f35b61013d600480360381019061013891906111dd565b6103b3565b60405161014a9190611238565b60405180910390f35b61016d600480360381019061016891906111dd565b6103d6565b005b610177610472565b6040516101849190611262565b60405180910390f35b6101a760048036038101906101a2919061127d565b61047c565b6040516101b49190611238565b60405180910390f35b6101c56104ab565b6040516101d291906112ec565b60405180910390f35b6101f560048036038101906101f09190611307565b6104b4565b005b610211600480360381019061020c91906111dd565b6105d3565b005b61022d60048036038101906102289190611334565b610670565b60405161023a9190611262565b60405180910390f35b61024b6106b8565b005b6102556106cc565b6040516102629190611370565b60405180910390f35b6102736106f6565b6040516102809190611122565b60405180910390f35b6102a3600480360381019061029e91906111dd565b610788565b6040516102b09190611238565b60405180910390f35b6102d360048036038101906102ce919061138b565b6107ab565b6040516102e09190611262565b60405180910390f35b61030360048036038101906102fe9190611334565b610832565b005b61031f600480360381019061031a9190611334565b610895565b005b606060038054610330906113fa565b80601f016020809104026020016040519081016040528092919081815260200182805461035c906113fa565b80156103a95780601f1061037e576101008083540402835291602001916103a9565b820191906000526020600020905b81548152906001019060200180831161038c57829003601f168201915b5050505050905090565b6000806103be61091b565b90506103cb818585610923565b600191505092915050565b33600760008273ffffffffffffffffffffffffffffffffffffffff1673ffffffffffffffffffffffffffffffffffffffff16815260200190815260200160002060009054906101000a900460ff16610463576040517f08c379a000000000000000000000000000000000000000000000000000000000815260040161045a90611477565b60405180910390fd5b61046d8383610935565b505050565b6000600254905090565b60008061048761091b565b90506104948582856109c1565b61049f858585610a55565b60019150509392505050565b60006012905090565b806104c66104c06106cc565b306107ab565b6104ce6104ab565b600a6104da91906115f9565b826104e59190611644565b1115610526576040517f08c379a000000000000000000000000000000000000000000000000000000000815260040161051d906116d2565b60405180910390fd5b61052e6104ab565b600a61053a91906115f9565b826105459190611644565b91503073ffffffffffffffffffffffffffffffffffffffff166323b872dd61056b6106cc565b33856040518463ffffffff1660e01b815260040161058b939291906116f2565b6020604051808303816000875af11580156105aa573d6000803e3d6000fd5b505050506040513d601f19601f820116820180604052508101906105ce9190611755565b505050565b33600760008273ffffffffffffffffffffffffffffffffffffffff1673ffffffffffffffffffffffffffffffffffffffff16815260200190815260200160002060009054906101000a900460ff16610660576040517f08c379a000000000000000000000000000000000000000000000000000000000815260040161065790611477565b60405180910390fd5b61066b338484610a55565b505050565b60008060008373ffffffffffffffffffffffffffffffffffffffff1673ffffffffffffffffffffffffffffffffffffffff168152602001908152602001600020549050919050565b6106c0610b49565b6106ca6000610bd0565b565b6000600560009054906101000a900473ffffffffffffffffffffffffffffffffffffffff16905090565b606060048054610705906113fa565b80601f0160208091040260200160405190810160405280929190818152602001828054610731906113fa565b801561077e5780601f106107535761010080835404028352916020019161077e565b820191906000526020600020905b81548152906001019060200180831161076157829003601f168201915b5050505050905090565b60008061079361091b565b90506107a0818585610a55565b600191505092915050565b6000600160008473ffffffffffffffffffffffffffffffffffffffff1673ffffffffffffffffffffffffffffffffffffffff16815260200190815260200160002060008373ffffffffffffffffffffffffffffffffffffffff1673ffffffffffffffffffffffffffffffffffffffff16815260200190815260200160002054905092915050565b61083a610b49565b6001600760008373ffffffffffffffffffffffffffffffffffffffff1673ffffffffffffffffffffffffffffffffffffffff16815260200190815260200160002060006101000a81548160ff02191690831515021790555050565b61089d610b49565b600073ffffffffffffffffffffffffffffffffffffffff168173ffffffffffffffffffffffffffffffffffffffff160361090f5760006040517f1e4fbdf70000000000000000000000000000000000000000000000000000000081526004016109069190611370565b60405180910390fd5b61091881610bd0565b50565b600033905090565b6109308383836001610c96565b505050565b3073ffffffffffffffffffffffffffffffffffffffff166323b872dd6109596106cc565b84846040518463ffffffff1660e01b8152600401610979939291906116f2565b6020604051808303816000875af1158015610998573d6000803e3d6000fd5b505050506040513d601f19601f820116820180604052508101906109bc9190611755565b505050565b60006109cd84846107ab565b90507fffffffffffffffffffffffffffffffffffffffffffffffffffffffffffffffff8114610a4f5781811015610a3f578281836040517ffb8f41b2000000000000000000000000000000000000000000000000000000008152600401610a3693929190611782565b60405180910390fd5b610a4e84848484036000610c96565b5b50505050565b600073ffffffffffffffffffffffffffffffffffffffff168373ffffffffffffffffffffffffffffffffffffffff1603610ac75760006040517f96c6fd1e000000000000000000000000000000000000000000000000000000008152600401610abe9190611370565b60405180910390fd5b600073ffffffffffffffffffffffffffffffffffffffff168273ffffffffffffffffffffffffffffffffffffffff1603610b395760006040517fec442f05000000000000000000000000000000000000000000000000000000008152600401610b309190611370565b60405180910390fd5b610b44838383610e6d565b505050565b610b5161091b565b73ffffffffffffffffffffffffffffffffffffffff16610b6f6106cc565b73ffffffffffffffffffffffffffffffffffffffff1614610bce57610b9261091b565b6040517f118cdaa7000000000000000000000000000000000000000000000000000000008152600401610bc59190611370565b60405180910390fd5b565b6000600560009054906101000a900473ffffffffffffffffffffffffffffffffffffffff16905081600560006101000a81548173ffffffffffffffffffffffffffffffffffffffff021916908373ffffffffffffffffffffffffffffffffffffffff1602179055508173ffffffffffffffffffffffffffffffffffffffff168173ffffffffffffffffffffffffffffffffffffffff167f8be0079c531659141344cd1fd0a4f28419497f9722a3daafe3b4186f6b6457e060405160405180910390a35050565b600073ffffffffffffffffffffffffffffffffffffffff168473ffffffffffffffffffffffffffffffffffffffff1603610d085760006040517fe602df05000000000000000000000000000000000000000000000000000000008152600401610cff9190611370565b60405180910390fd5b600073ffffffffffffffffffffffffffffffffffffffff168373ffffffffffffffffffffffffffffffffffffffff1603610d7a5760006040517f94280d62000000000000000000000000000000000000000000000000000000008152600401610d719190611370565b60405180910390fd5b81600160008673ffffffffffffffffffffffffffffffffffffffff1673ffffffffffffffffffffffffffffffffffffffff16815260200190815260200160002060008573ffffffffffffffffffffffffffffffffffffffff1673ffffffffffffffffffffffffffffffffffffffff168152602001908152602001600020819055508015610e67578273ffffffffffffffffffffffffffffffffffffffff168473ffffffffffffffffffffffffffffffffffffffff167f8c5be1e5ebec7d5bd14f71427d1e84f3dd0314c0f7b2291e5b200ac8c7c3b92584604051610e5e9190611262565b60405180910390a35b50505050565b600073ffffffffffffffffffffffffffffffffffffffff168373ffffffffffffffffffffffffffffffffffffffff1603610ebf578060026000828254610eb391906117b9565b92505081905550610f92565b60008060008573ffffffffffffffffffffffffffffffffffffffff1673ffffffffffffffffffffffffffffffffffffffff16815260200190815260200160002054905081811015610f4b578381836040517fe450d38c000000000000000000000000000000000000000000000000000000008152600401610f4293929190611782565b60405180910390fd5b8181036000808673ffffffffffffffffffffffffffffffffffffffff1673ffffffffffffffffffffffffffffffffffffffff16815260200190815260200160002081905550505b600073ffffffffffffffffffffffffffffffffffffffff168273ffffffffffffffffffffffffffffffffffffffff1603610fdb5780600260008282540392505081905550611028565b806000808473ffffffffffffffffffffffffffffffffffffffff1673ffffffffffffffffffffffffffffffffffffffff168152602001908152602001600020600082825401925050819055505b8173ffffffffffffffffffffffffffffffffffffffff168373ffffffffffffffffffffffffffffffffffffffff167fddf252ad1be2c89b69c2b068fc378daa952ba7f163c4a11628f55a4df523b3ef836040516110859190611262565b60405180910390a3505050565b600081519050919050565b600082825260208201905092915050565b60005b838110156110cc5780820151818401526020810190506110b1565b60008484015250505050565b6000601f19601f8301169050919050565b60006110f482611092565b6110fe818561109d565b935061110e8185602086016110ae565b611117816110d8565b840191505092915050565b6000602082019050818103600083015261113c81846110e9565b905092915050565b600080fd5b600073ffffffffffffffffffffffffffffffffffffffff82169050919050565b600061117482611149565b9050919050565b61118481611169565b811461118f57600080fd5b50565b6000813590506111a18161117b565b92915050565b6000819050919050565b6111ba816111a7565b81146111c557600080fd5b50565b6000813590506111d7816111b1565b92915050565b600080604083850312156111f4576111f3611144565b5b600061120285828601611192565b9250506020611213858286016111c8565b9150509250929050565b60008115159050919050565b6112328161121d565b82525050565b600060208201905061124d6000830184611229565b92915050565b61125c816111a7565b82525050565b60006020820190506112776000830184611253565b92915050565b60008060006060848603121561129657611295611144565b5b60006112a486828701611192565b93505060206112b586828701611192565b92505060406112c6868287016111c8565b9150509250925092565b600060ff82169050919050565b6112e6816112d0565b82525050565b600060208201905061130160008301846112dd565b92915050565b60006020828403121561131d5761131c611144565b5b600061132b848285016111c8565b91505092915050565b60006020828403121561134a57611349611144565b5b600061135884828501611192565b91505092915050565b61136a81611169565b82525050565b60006020820190506113856000830184611361565b92915050565b600080604083850312156113a2576113a1611144565b5b60006113b085828601611192565b92505060206113c185828601611192565b9150509250929050565b7f4e487b7100000000000000000000000000000000000000000000000000000000600052602260045260246000fd5b6000600282049050600182168061141257607f821691505b602082108103611425576114246113cb565b5b50919050565b7f45524332303a204e6f7420617070726f76656420666f72207472616e73666572600082015250565b600061146160208361109d565b915061146c8261142b565b602082019050919050565b6000602082019050818103600083015261149081611454565b9050919050565b7f4e487b7100000000000000000000000000000000000000000000000000000000600052601160045260246000fd5b60008160011c9050919050565b6000808291508390505b600185111561151d578086048111156114f9576114f8611497565b5b60018516156115085780820291505b8081029050611516856114c6565b94506114dd565b94509492505050565b60008261153657600190506115f2565b8161154457600090506115f2565b816001811461155a576002811461156457611593565b60019150506115f2565b60ff84111561157657611575611497565b5b8360020a91508482111561158d5761158c611497565b5b506115f2565b5060208310610133831016604e8410600b84101617156115c85782820a9050838111156115c3576115c2611497565b5b6115f2565b6115d584848460016114d3565b925090508184048111156115ec576115eb611497565b5b81810290505b9392505050565b6000611604826111a7565b915061160f836112d0565b925061163c7fffffffffffffffffffffffffffffffffffffffffffffffffffffffffffffffff8484611526565b905092915050565b600061164f826111a7565b915061165a836111a7565b9250828202611668816111a7565b9150828204841483151761167f5761167e611497565b5b5092915050565b7f45524332303a204e6f7420656e6f75676820746f6b656e000000000000000000600082015250565b60006116bc60178361109d565b91506116c782611686565b602082019050919050565b600060208201905081810360008301526116eb816116af565b9050919050565b60006060820190506117076000830186611361565b6117146020830185611361565b6117216040830184611253565b949350505050565b6117328161121d565b811461173d57600080fd5b50565b60008151905061174f81611729565b92915050565b60006020828403121561176b5761176a611144565b5b600061177984828501611740565b91505092915050565b60006060820190506117976000830186611361565b6117a46020830185611253565b6117b16040830184611253565b949350505050565b60006117c4826111a7565b91506117cf836111a7565b92508282019050808211156117e7576117e6611497565b5b9291505056fea26469706673582212205a43ed6af6491ca2324c35b7853eca1558777e613c84684fc2e322376505e2ac64736f6c63430008180033",
  "linkReferences": {},
  "deployedLinkReferences": {}
}