{
  "_format": "hh-sol-artifact-1",
  "contractName": "APR",
  "sourceName": "contracts/APR.sol",
  "abi": [
    {
      "inputs": [
        {
          "internalType": "address",
          "name": "_erc20Contract",
          "type": "address"
        },
        {
          "internalType": "address",
          "name": "_erc721Address",
          "type": "address"
        }
      ],
      "stateMutability": "nonpayable",
      "type": "constructor"
    },
    {
      "inputs": [
        {
          "internalType": "address",
          "name": "owner",
          "type": "address"
        }
      ],
      "name": "OwnableInvalidOwner",
      "type": "error"
    },
    {
      "inputs": [
        {
          "internalType": "address",
          "name": "account",
          "type": "address"
        }
      ],
      "name": "OwnableUnauthorizedAccount",
      "type": "error"
    },
    {
      "anonymous": false,
      "inputs": [
        {
          "indexed": true,
          "internalType": "address",
          "name": "from",
          "type": "address"
        },
        {
          "indexed": true,
          "internalType": "uint256",
          "name": "amount",
          "type": "uint256"
        },
        {
          "indexed": true,
          "internalType": "uint256",
          "name": "time",
          "type": "uint256"
        }
      ],
      "name": "Claim",
      "type": "event"
    },
    {
      "anonymous": false,
      "inputs": [
        {
          "indexed": true,
          "internalType": "address",
          "name": "from",
          "type": "address"
        },
        {
          "indexed": true,
          "internalType": "uint256",
          "name": "amount",
          "type": "uint256"
        },
        {
          "indexed": true,
          "internalType": "uint256",
          "name": "time",
          "type": "uint256"
        }
      ],
      "name": "Deposit",
      "type": "event"
    },
    {
      "anonymous": false,
      "inputs": [
        {
          "indexed": true,
          "internalType": "address",
          "name": "from",
          "type": "address"
        },
        {
          "indexed": true,
          "internalType": "uint256",
          "name": "tokenId",
          "type": "uint256"
        },
        {
          "indexed": true,
          "internalType": "uint256",
          "name": "time",
          "type": "uint256"
        }
      ],
      "name": "DepositNft",
      "type": "event"
    },
    {
      "anonymous": false,
      "inputs": [
        {
          "indexed": true,
          "internalType": "address",
          "name": "from",
          "type": "address"
        },
        {
          "indexed": true,
          "internalType": "uint256",
          "name": "amount",
          "type": "uint256"
        },
        {
          "indexed": true,
          "internalType": "uint256",
          "name": "time",
          "type": "uint256"
        }
      ],
      "name": "MintToken",
      "type": "event"
    },
    {
      "anonymous": false,
      "inputs": [
        {
          "indexed": true,
          "internalType": "address",
          "name": "previousOwner",
          "type": "address"
        },
        {
          "indexed": true,
          "internalType": "address",
          "name": "newOwner",
          "type": "address"
        }
      ],
      "name": "OwnershipTransferred",
      "type": "event"
    },
    {
      "anonymous": false,
      "inputs": [
        {
          "indexed": true,
          "internalType": "address",
          "name": "from",
          "type": "address"
        },
        {
          "indexed": true,
          "internalType": "uint256",
          "name": "amount",
          "type": "uint256"
        },
        {
          "indexed": true,
          "internalType": "uint256",
          "name": "time",
          "type": "uint256"
        }
      ],
      "name": "Withdraw",
      "type": "event"
    },
    {
      "anonymous": false,
      "inputs": [
        {
          "indexed": true,
          "internalType": "address",
          "name": "from",
          "type": "address"
        },
        {
          "indexed": true,
          "internalType": "uint256",
          "name": "tokenId",
          "type": "uint256"
        },
        {
          "indexed": true,
          "internalType": "uint256",
          "name": "time",
          "type": "uint256"
        }
      ],
      "name": "WithdrawNft",
      "type": "event"
    },
    {
      "inputs": [],
      "name": "DEFAULT_APR",
      "outputs": [
        {
          "internalType": "uint8",
          "name": "",
          "type": "uint8"
        }
      ],
      "stateMutability": "view",
      "type": "function"
    },
    {
      "inputs": [],
      "name": "DEFAULT_NFT_APR",
      "outputs": [
        {
          "internalType": "uint8",
          "name": "",
          "type": "uint8"
        }
      ],
      "stateMutability": "view",
      "type": "function"
    },
    {
      "inputs": [],
      "name": "ERC20_PER_NFT",
      "outputs": [
        {
          "internalType": "uint256",
          "name": "",
          "type": "uint256"
        }
      ],
      "stateMutability": "view",
      "type": "function"
    },
    {
      "inputs": [],
      "name": "INTERVAL_TIME_DEPOSIT_IN_SECONDS",
      "outputs": [
        {
          "internalType": "uint256",
          "name": "",
          "type": "uint256"
        }
      ],
      "stateMutability": "view",
      "type": "function"
    },
    {
      "inputs": [],
      "name": "SECONDS_IN_DAY",
      "outputs": [
        {
          "internalType": "uint256",
          "name": "",
          "type": "uint256"
        }
      ],
      "stateMutability": "view",
      "type": "function"
    },
    {
      "inputs": [],
      "name": "SECONDS_IN_HOUR",
      "outputs": [
        {
          "internalType": "uint256",
          "name": "",
          "type": "uint256"
        }
      ],
      "stateMutability": "view",
      "type": "function"
    },
    {
      "inputs": [],
      "name": "SECONDS_IN_MINUTE",
      "outputs": [
        {
          "internalType": "uint256",
          "name": "",
          "type": "uint256"
        }
      ],
      "stateMutability": "view",
      "type": "function"
    },
    {
      "inputs": [],
      "name": "SECONDS_IN_YEAR",
      "outputs": [
        {
          "internalType": "uint256",
          "name": "",
          "type": "uint256"
        }
      ],
      "stateMutability": "view",
      "type": "function"
    },
    {
      "inputs": [],
      "name": "claimReward",
      "outputs": [],
      "stateMutability": "nonpayable",
      "type": "function"
    },
    {
      "inputs": [
        {
          "internalType": "uint256",
          "name": "amount",
          "type": "uint256"
        }
      ],
      "name": "deposit",
      "outputs": [],
      "stateMutability": "nonpayable",
      "type": "function"
    },
    {
      "inputs": [
        {
          "internalType": "uint256",
          "name": "tokenId",
          "type": "uint256"
        }
      ],
      "name": "depositERC721",
      "outputs": [],
      "stateMutability": "nonpayable",
      "type": "function"
    },
    {
      "inputs": [
        {
          "internalType": "address",
          "name": "from",
          "type": "address"
        }
      ],
      "name": "getAPR",
      "outputs": [
        {
          "internalType": "uint256",
          "name": "",
          "type": "uint256"
        }
      ],
      "stateMutability": "view",
      "type": "function"
    },
    {
      "inputs": [],
      "name": "getClaimTime",
      "outputs": [
        {
          "internalType": "uint256",
          "name": "",
          "type": "uint256"
        }
      ],
      "stateMutability": "view",
      "type": "function"
    },
    {
      "inputs": [],
      "name": "getDepositNftCount",
      "outputs": [
        {
          "internalType": "uint256[]",
          "name": "",
          "type": "uint256[]"
        }
      ],
      "stateMutability": "view",
      "type": "function"
    },
    {
      "inputs": [],
      "name": "getDepositedErc20Balance",
      "outputs": [
        {
          "internalType": "uint256",
          "name": "",
          "type": "uint256"
        }
      ],
      "stateMutability": "view",
      "type": "function"
    },
    {
      "inputs": [],
      "name": "getErc20Balance",
      "outputs": [
        {
          "internalType": "uint256",
          "name": "",
          "type": "uint256"
        }
      ],
      "stateMutability": "view",
      "type": "function"
    },
    {
      "inputs": [],
      "name": "getErc721Balance",
      "outputs": [
        {
          "internalType": "uint256[]",
          "name": "",
          "type": "uint256[]"
        }
      ],
      "stateMutability": "view",
      "type": "function"
    },
    {
      "inputs": [],
      "name": "getWithdrawTime",
      "outputs": [
        {
          "internalType": "uint256",
          "name": "",
          "type": "uint256"
        }
      ],
      "stateMutability": "view",
      "type": "function"
    },
    {
      "inputs": [],
      "name": "owner",
      "outputs": [
        {
          "internalType": "address",
          "name": "",
          "type": "address"
        }
      ],
      "stateMutability": "view",
      "type": "function"
    },
    {
      "inputs": [],
      "name": "renounceOwnership",
      "outputs": [],
      "stateMutability": "nonpayable",
      "type": "function"
    },
    {
      "inputs": [
        {
          "internalType": "uint8",
          "name": "amount",
          "type": "uint8"
        }
      ],
      "name": "setDefaultAPR",
      "outputs": [],
      "stateMutability": "nonpayable",
      "type": "function"
    },
    {
      "inputs": [
        {
          "internalType": "address",
          "name": "newOwner",
          "type": "address"
        }
      ],
      "name": "transferOwnership",
      "outputs": [],
      "stateMutability": "nonpayable",
      "type": "function"
    },
    {
      "inputs": [],
      "name": "withdraw",
      "outputs": [],
      "stateMutability": "nonpayable",
      "type": "function"
    },
    {
      "inputs": [
        {
          "internalType": "uint256",
          "name": "tokenId",
          "type": "uint256"
        }
      ],
      "name": "withdrawERC721",
      "outputs": [],
      "stateMutability": "nonpayable",
      "type": "function"
    }
  ],
  "bytecode": "0x60806040526008600260146101000a81548160ff021916908360ff1602179055503480156200002d57600080fd5b506040516200366938038062003669833981810160405281019062000053919062000293565b33600073ffffffffffffffffffffffffffffffffffffffff168173ffffffffffffffffffffffffffffffffffffffff1603620000c95760006040517f1e4fbdf7000000000000000000000000000000000000000000000000000000008152600401620000c09190620002eb565b60405180910390fd5b620000da816200016560201b60201c565b5081600260006101000a81548173ffffffffffffffffffffffffffffffffffffffff021916908373ffffffffffffffffffffffffffffffffffffffff16021790555080600160006101000a81548173ffffffffffffffffffffffffffffffffffffffff021916908373ffffffffffffffffffffffffffffffffffffffff160217905550505062000308565b60008060009054906101000a900473ffffffffffffffffffffffffffffffffffffffff169050816000806101000a81548173ffffffffffffffffffffffffffffffffffffffff021916908373ffffffffffffffffffffffffffffffffffffffff1602179055508173ffffffffffffffffffffffffffffffffffffffff168173ffffffffffffffffffffffffffffffffffffffff167f8be0079c531659141344cd1fd0a4f28419497f9722a3daafe3b4186f6b6457e060405160405180910390a35050565b600080fd5b600073ffffffffffffffffffffffffffffffffffffffff82169050919050565b60006200025b826200022e565b9050919050565b6200026d816200024e565b81146200027957600080fd5b50565b6000815190506200028d8162000262565b92915050565b60008060408385031215620002ad57620002ac62000229565b5b6000620002bd858286016200027c565b9250506020620002d0858286016200027c565b9150509250929050565b620002e5816200024e565b82525050565b6000602082019050620003026000830184620002da565b92915050565b61335180620003186000396000f3fe608060405234801561001057600080fd5b50600436106101585760003560e01c8063b578abee116100c3578063e979f7691161007c578063e979f76914610349578063eb24d10e14610367578063ed1ea5d314610385578063f2374551146103a1578063f2fde38b146103bf578063f5a07256146103db57610158565b8063b578abee146102af578063b6b55f25146102cd578063b88a802f146102e9578063c420845f146102f3578063d8a63f5914610311578063e1041af51461032d57610158565b806361a52a361161011557806361a52a361461020f578063715018a61461022d57806372477ed4146102375780638793f2c7146102555780638c9f5770146102735780638da5cb5b1461029157610158565b80630b47a1a01461015d5780631c5122d91461017b5780633ccfd60b146101ab5780634e4f9424146101b55780635858b640146101d35780635dcc9391146101f1575b600080fd5b6101656103f9565b60405161017291906127ab565b60405180910390f35b61019560048036038101906101909190612829565b610400565b6040516101a291906127ab565b60405180910390f35b6101b3610476565b005b6101bd6104cb565b6040516101ca9190612914565b60405180910390f35b6101db6106f3565b6040516101e89190612952565b60405180910390f35b6101f9610706565b60405161020691906127ab565b60405180910390f35b61021761070e565b60405161022491906127ab565b60405180910390f35b610235610715565b005b61023f610729565b60405161024c9190612952565b60405180910390f35b61025d61072e565b60405161026a91906127ab565b60405180910390f35b61027b610734565b6040516102889190612914565b60405180910390f35b6102996109db565b6040516102a6919061297c565b60405180910390f35b6102b7610a04565b6040516102c491906127ab565b60405180910390f35b6102e760048036038101906102e291906129c3565b610a15565b005b6102f1610c78565b005b6102fb610da4565b60405161030891906127ab565b60405180910390f35b61032b600480360381019061032691906129c3565b610dee565b005b610347600480360381019061034291906129c3565b6111cf565b005b610351611522565b60405161035e91906127ab565b60405180910390f35b61036f61156c565b60405161037c91906127ab565b60405180910390f35b61039f600480360381019061039a9190612a1c565b61160f565b005b6103a9611635565b6040516103b691906127ab565b60405180910390f35b6103d960048036038101906103d49190612829565b61163a565b005b6103e36116c0565b6040516103f091906127ab565b60405180910390f35b620f424081565b6000600260149054906101000a900460ff16600360008473ffffffffffffffffffffffffffffffffffffffff1673ffffffffffffffffffffffffffffffffffffffff16815260200190815260200160002060000160009054906101000a900460ff1661046c9190612a78565b60ff169050919050565b60006104813361170a565b905042813373ffffffffffffffffffffffffffffffffffffffff167ff279e6a1f5e320cca91135676d9cb6e44ca8a08c0b88342bcdb1144f6511b56860405160405180910390a450565b606060003390506000600360008373ffffffffffffffffffffffffffffffffffffffff1673ffffffffffffffffffffffffffffffffffffffff1681526020019081526020016000206004015467ffffffffffffffff8111156105305761052f612aad565b5b60405190808252806020026020018201604052801561055e5781602001602082028036833780820191505090505b5090506000805b600160009054906101000a900473ffffffffffffffffffffffffffffffffffffffff1673ffffffffffffffffffffffffffffffffffffffff166318160ddd6040518163ffffffff1660e01b8152600401602060405180830381865afa1580156105d2573d6000803e3d6000fd5b505050506040513d601f19601f820116820180604052508101906105f69190612af1565b8110156106e9578373ffffffffffffffffffffffffffffffffffffffff166004600083815260200190815260200160002060009054906101000a900473ffffffffffffffffffffffffffffffffffffffff1673ffffffffffffffffffffffffffffffffffffffff1603610692578083838151811061067757610676612b1e565b5b602002602001018181525050818061068e90612b4d565b9250505b600360008573ffffffffffffffffffffffffffffffffffffffff1673ffffffffffffffffffffffffffffffffffffffff168152602001908152602001600020600401548203156106e9578080600101915050610565565b5081935050505090565b600260149054906101000a900460ff1681565b6301e1338081565b6201518081565b61071d611a9a565b6107276000611b21565b565b600281565b610e1081565b60606000600160009054906101000a900473ffffffffffffffffffffffffffffffffffffffff1673ffffffffffffffffffffffffffffffffffffffff166370a08231336040518263ffffffff1660e01b8152600401610793919061297c565b602060405180830381865afa1580156107b0573d6000803e3d6000fd5b505050506040513d601f19601f820116820180604052508101906107d49190612af1565b905060008167ffffffffffffffff8111156107f2576107f1612aad565b5b6040519080825280602002602001820160405280156108205781602001602082028036833780820191505090505b5090506000805b600160009054906101000a900473ffffffffffffffffffffffffffffffffffffffff1673ffffffffffffffffffffffffffffffffffffffff166318160ddd6040518163ffffffff1660e01b8152600401602060405180830381865afa158015610894573d6000803e3d6000fd5b505050506040513d601f19601f820116820180604052508101906108b89190612af1565b8110156109d1573373ffffffffffffffffffffffffffffffffffffffff16600160009054906101000a900473ffffffffffffffffffffffffffffffffffffffff1673ffffffffffffffffffffffffffffffffffffffff16636352211e836040518263ffffffff1660e01b815260040161093191906127ab565b602060405180830381865afa15801561094e573d6000803e3d6000fd5b505050506040513d601f19601f820116820180604052508101906109729190612baa565b73ffffffffffffffffffffffffffffffffffffffff16036109bc57808383815181106109a1576109a0612b1e565b5b60200260200101818152505081806109b890612b4d565b9250505b838203156109d1578080600101915050610827565b5081935050505090565b60008060009054906101000a900473ffffffffffffffffffffffffffffffffffffffff16905090565b6002600f610a129190612bd7565b81565b6000339050600260009054906101000a900473ffffffffffffffffffffffffffffffffffffffff1673ffffffffffffffffffffffffffffffffffffffff1663313ce5676040518163ffffffff1660e01b8152600401602060405180830381865afa158015610a87573d6000803e3d6000fd5b505050506040513d601f19601f82011682018060405250810190610aab9190612c2e565b600a610ab79190612d8e565b82610ac29190612bd7565b9150600260009054906101000a900473ffffffffffffffffffffffffffffffffffffffff1673ffffffffffffffffffffffffffffffffffffffff166323b872dd8230856040518463ffffffff1660e01b8152600401610b2393929190612dd9565b6020604051808303816000875af1158015610b42573d6000803e3d6000fd5b505050506040513d601f19601f82011682018060405250810190610b669190612e48565b50610b718183611be5565b6002600f610b7f9190612bd7565b42610b8a9190612e75565b600360008373ffffffffffffffffffffffffffffffffffffffff1673ffffffffffffffffffffffffffffffffffffffff168152602001908152602001600020600301819055506002600f610bde9190612bd7565b42610be99190612e75565b600360008373ffffffffffffffffffffffffffffffffffffffff1673ffffffffffffffffffffffffffffffffffffffff1681526020019081526020016000206002018190555042828273ffffffffffffffffffffffffffffffffffffffff167f90890809c654f11d6e72a28fa60149770a0d11ec6c92319d6ceb2bb0a4ea1a1560405160405180910390a45050565b6000610c833361244f565b9050600260009054906101000a900473ffffffffffffffffffffffffffffffffffffffff1673ffffffffffffffffffffffffffffffffffffffff1663174e31c433836040518363ffffffff1660e01b8152600401610ce2929190612ea9565b600060405180830381600087803b158015610cfc57600080fd5b505af1158015610d10573d6000803e3d6000fd5b505050506000600560003373ffffffffffffffffffffffffffffffffffffffff1673ffffffffffffffffffffffffffffffffffffffff1681526020019081526020016000206001018190555042813373ffffffffffffffffffffffffffffffffffffffff167f34fcbac0073d7c3d388e51312faf357774904998eeb8fca628b9e6f65ee1cbf760405160405180910390a450565b6000600360003373ffffffffffffffffffffffffffffffffffffffff1673ffffffffffffffffffffffffffffffffffffffff16815260200190815260200160002060030154905090565b336000600160009054906101000a900473ffffffffffffffffffffffffffffffffffffffff1673ffffffffffffffffffffffffffffffffffffffff166370a08231836040518263ffffffff1660e01b8152600401610e4c919061297c565b602060405180830381865afa158015610e69573d6000803e3d6000fd5b505050506040513d601f19601f82011682018060405250810190610e8d9190612af1565b11610ecd576040517f08c379a0000000000000000000000000000000000000000000000000000000008152600401610ec490612f55565b60405180910390fd5b3373ffffffffffffffffffffffffffffffffffffffff16600160009054906101000a900473ffffffffffffffffffffffffffffffffffffffff1673ffffffffffffffffffffffffffffffffffffffff16636352211e846040518263ffffffff1660e01b8152600401610f3f91906127ab565b602060405180830381865afa158015610f5c573d6000803e3d6000fd5b505050506040513d601f19601f82011682018060405250810190610f809190612baa565b73ffffffffffffffffffffffffffffffffffffffff1614610fd6576040517f08c379a0000000000000000000000000000000000000000000000000000000008152600401610fcd90612fe7565b60405180910390fd5b600160009054906101000a900473ffffffffffffffffffffffffffffffffffffffff1673ffffffffffffffffffffffffffffffffffffffff166347e7ef2430846040518363ffffffff1660e01b8152600401611033929190612ea9565b600060405180830381600087803b15801561104d57600080fd5b505af1158015611061573d6000803e3d6000fd5b505050506002600360003373ffffffffffffffffffffffffffffffffffffffff1673ffffffffffffffffffffffffffffffffffffffff16815260200190815260200160002060000160008282829054906101000a900460ff166110c49190612a78565b92506101000a81548160ff021916908360ff160217905550600360003373ffffffffffffffffffffffffffffffffffffffff1673ffffffffffffffffffffffffffffffffffffffff168152602001908152602001600020600401600081548092919061112f90612b4d565b9190505550336004600084815260200190815260200160002060006101000a81548173ffffffffffffffffffffffffffffffffffffffff021916908373ffffffffffffffffffffffffffffffffffffffff16021790555042823373ffffffffffffffffffffffffffffffffffffffff167f7ad89f71bfd411c34e67f1593de34f11c471d79fdb7ed6adadf0253814be9f3660405160405180910390a45050565b33813073ffffffffffffffffffffffffffffffffffffffff16600160009054906101000a900473ffffffffffffffffffffffffffffffffffffffff1673ffffffffffffffffffffffffffffffffffffffff16636352211e836040518263ffffffff1660e01b815260040161124391906127ab565b602060405180830381865afa158015611260573d6000803e3d6000fd5b505050506040513d601f19601f820116820180604052508101906112849190612baa565b73ffffffffffffffffffffffffffffffffffffffff1614801561130557508173ffffffffffffffffffffffffffffffffffffffff166004600083815260200190815260200160002060009054906101000a900473ffffffffffffffffffffffffffffffffffffffff1673ffffffffffffffffffffffffffffffffffffffff16145b611344576040517f08c379a000000000000000000000000000000000000000000000000000000000815260040161133b90613079565b60405180910390fd5b600160009054906101000a900473ffffffffffffffffffffffffffffffffffffffff1673ffffffffffffffffffffffffffffffffffffffff1663f3fef3a333856040518363ffffffff1660e01b81526004016113a1929190612ea9565b600060405180830381600087803b1580156113bb57600080fd5b505af11580156113cf573d6000803e3d6000fd5b505050506002600360003373ffffffffffffffffffffffffffffffffffffffff1673ffffffffffffffffffffffffffffffffffffffff16815260200190815260200160002060000160008282829054906101000a900460ff166114329190613099565b92506101000a81548160ff021916908360ff160217905550600360003373ffffffffffffffffffffffffffffffffffffffff1673ffffffffffffffffffffffffffffffffffffffff168152602001908152602001600020600401600081548092919061149d906130ce565b91905055506004600084815260200190815260200160002060006101000a81549073ffffffffffffffffffffffffffffffffffffffff021916905542833373ffffffffffffffffffffffffffffffffffffffff167fcae6e85b835fcf864c07fb3cd4909bf840bf5114adf6a9f2553470fe7ca78ddc60405160405180910390a4505050565b6000600360003373ffffffffffffffffffffffffffffffffffffffff1673ffffffffffffffffffffffffffffffffffffffff16815260200190815260200160002060010154905090565b6000600260009054906101000a900473ffffffffffffffffffffffffffffffffffffffff1673ffffffffffffffffffffffffffffffffffffffff166370a08231336040518263ffffffff1660e01b81526004016115c9919061297c565b602060405180830381865afa1580156115e6573d6000803e3d6000fd5b505050506040513d601f19601f8201168201806040525081019061160a9190612af1565b905090565b611617611a9a565b80600260146101000a81548160ff021916908360ff16021790555050565b600281565b611642611a9a565b600073ffffffffffffffffffffffffffffffffffffffff168173ffffffffffffffffffffffffffffffffffffffff16036116b45760006040517f1e4fbdf70000000000000000000000000000000000000000000000000000000081526004016116ab919061297c565b60405180910390fd5b6116bd81611b21565b50565b6000600360003373ffffffffffffffffffffffffffffffffffffffff1673ffffffffffffffffffffffffffffffffffffffff16815260200190815260200160002060020154905090565b6000816000600360008373ffffffffffffffffffffffffffffffffffffffff1673ffffffffffffffffffffffffffffffffffffffff16815260200190815260200160002060030154141580156117a2575042600360008373ffffffffffffffffffffffffffffffffffffffff1673ffffffffffffffffffffffffffffffffffffffff1681526020019081526020016000206003015411155b6117e1576040517f08c379a00000000000000000000000000000000000000000000000000000000081526004016117d890613169565b60405180910390fd5b60006117ec8461244f565b9050600260009054906101000a900473ffffffffffffffffffffffffffffffffffffffff1673ffffffffffffffffffffffffffffffffffffffff1663174e31c433836040518363ffffffff1660e01b815260040161184b929190612ea9565b600060405180830381600087803b15801561186557600080fd5b505af1158015611879573d6000803e3d6000fd5b50505050600260009054906101000a900473ffffffffffffffffffffffffffffffffffffffff1673ffffffffffffffffffffffffffffffffffffffff16635f7807a485600360008873ffffffffffffffffffffffffffffffffffffffff1673ffffffffffffffffffffffffffffffffffffffff168152602001908152602001600020600101546040518363ffffffff1660e01b815260040161191c929190612ea9565b600060405180830381600087803b15801561193657600080fd5b505af115801561194a573d6000803e3d6000fd5b50505050600081600360008773ffffffffffffffffffffffffffffffffffffffff1673ffffffffffffffffffffffffffffffffffffffff1681526020019081526020016000206001015461199e9190612e75565b90506000600560003373ffffffffffffffffffffffffffffffffffffffff1673ffffffffffffffffffffffffffffffffffffffff168152602001908152602001600020600101819055506000600360008773ffffffffffffffffffffffffffffffffffffffff1673ffffffffffffffffffffffffffffffffffffffff168152602001908152602001600020600101819055506002600f611a3e9190612bd7565b42611a499190612e75565b600360008773ffffffffffffffffffffffffffffffffffffffff1673ffffffffffffffffffffffffffffffffffffffff16815260200190815260200160002060030181905550809350505050919050565b611aa261278a565b73ffffffffffffffffffffffffffffffffffffffff16611ac06109db565b73ffffffffffffffffffffffffffffffffffffffff1614611b1f57611ae361278a565b6040517f118cdaa7000000000000000000000000000000000000000000000000000000008152600401611b16919061297c565b60405180910390fd5b565b60008060009054906101000a900473ffffffffffffffffffffffffffffffffffffffff169050816000806101000a81548173ffffffffffffffffffffffffffffffffffffffff021916908373ffffffffffffffffffffffffffffffffffffffff1602179055508173ffffffffffffffffffffffffffffffffffffffff168173ffffffffffffffffffffffffffffffffffffffff167f8be0079c531659141344cd1fd0a4f28419497f9722a3daafe3b4186f6b6457e060405160405180910390a35050565b6000600560008473ffffffffffffffffffffffffffffffffffffffff1673ffffffffffffffffffffffffffffffffffffffff1681526020019081526020016000206000015403611c7b5742600560008473ffffffffffffffffffffffffffffffffffffffff1673ffffffffffffffffffffffffffffffffffffffff16815260200190815260200160002060000181905550611df0565b6000600560008473ffffffffffffffffffffffffffffffffffffffff1673ffffffffffffffffffffffffffffffffffffffff1681526020019081526020016000206000015442611ccb9190613189565b905060006301e133806064611ce09190612bd7565b82611cea86610400565b600360008873ffffffffffffffffffffffffffffffffffffffff1673ffffffffffffffffffffffffffffffffffffffff16815260200190815260200160002060010154611d379190612bd7565b611d419190612bd7565b611d4b91906131ec565b905042600560008673ffffffffffffffffffffffffffffffffffffffff1673ffffffffffffffffffffffffffffffffffffffff1681526020019081526020016000206000018190555080600560008673ffffffffffffffffffffffffffffffffffffffff1673ffffffffffffffffffffffffffffffffffffffff1681526020019081526020016000206001016000828254611de69190612e75565b9250508190555050505b80600360008473ffffffffffffffffffffffffffffffffffffffff1673ffffffffffffffffffffffffffffffffffffffff1681526020019081526020016000206001016000828254611e429190612e75565b92505081905550600260009054906101000a900473ffffffffffffffffffffffffffffffffffffffff1673ffffffffffffffffffffffffffffffffffffffff1663313ce5676040518163ffffffff1660e01b8152600401602060405180830381865afa158015611eb6573d6000803e3d6000fd5b505050506040513d601f19601f82011682018060405250810190611eda9190612c2e565b600a611ee69190612d8e565b620f4240611ef26104cb565b51600160009054906101000a900473ffffffffffffffffffffffffffffffffffffffff1673ffffffffffffffffffffffffffffffffffffffff166370a08231866040518263ffffffff1660e01b8152600401611f4e919061297c565b602060405180830381865afa158015611f6b573d6000803e3d6000fd5b505050506040513d601f19601f82011682018060405250810190611f8f9190612af1565b611f999190612e75565b611fa39190612bd7565b611fad9190612bd7565b600360008473ffffffffffffffffffffffffffffffffffffffff1673ffffffffffffffffffffffffffffffffffffffff168152602001908152602001600020600101541061244b576000600260009054906101000a900473ffffffffffffffffffffffffffffffffffffffff1673ffffffffffffffffffffffffffffffffffffffff1663313ce5676040518163ffffffff1660e01b8152600401602060405180830381865afa158015612064573d6000803e3d6000fd5b505050506040513d601f19601f820116820180604052508101906120889190612c2e565b600a6120949190612d8e565b620f42406120a06104cb565b51600160009054906101000a900473ffffffffffffffffffffffffffffffffffffffff1673ffffffffffffffffffffffffffffffffffffffff166370a08231876040518263ffffffff1660e01b81526004016120fc919061297c565b602060405180830381865afa158015612119573d6000803e3d6000fd5b505050506040513d601f19601f8201168201806040525081019061213d9190612af1565b6121479190612e75565b6121519190612bd7565b61215b9190612bd7565b600360008573ffffffffffffffffffffffffffffffffffffffff1673ffffffffffffffffffffffffffffffffffffffff168152602001908152602001600020600101546121a89190613189565b9050600260009054906101000a900473ffffffffffffffffffffffffffffffffffffffff1673ffffffffffffffffffffffffffffffffffffffff1663313ce5676040518163ffffffff1660e01b8152600401602060405180830381865afa158015612217573d6000803e3d6000fd5b505050506040513d601f19601f8201168201806040525081019061223b9190612c2e565b600a6122479190612d8e565b620f42406122559190612bd7565b81106124495760005b600260009054906101000a900473ffffffffffffffffffffffffffffffffffffffff1673ffffffffffffffffffffffffffffffffffffffff1663313ce5676040518163ffffffff1660e01b8152600401602060405180830381865afa1580156122cb573d6000803e3d6000fd5b505050506040513d601f19601f820116820180604052508101906122ef9190612c2e565b600a6122fb9190612d8e565b620f42406123099190612bd7565b8261231491906131ec565b81101561244757600160009054906101000a900473ffffffffffffffffffffffffffffffffffffffff1673ffffffffffffffffffffffffffffffffffffffff166340c10f1985600160009054906101000a900473ffffffffffffffffffffffffffffffffffffffff1673ffffffffffffffffffffffffffffffffffffffff166318160ddd6040518163ffffffff1660e01b8152600401602060405180830381865afa1580156123c7573d6000803e3d6000fd5b505050506040513d601f19601f820116820180604052508101906123eb9190612af1565b6040518363ffffffff1660e01b8152600401612408929190612ea9565b600060405180830381600087803b15801561242257600080fd5b505af1158015612436573d6000803e3d6000fd5b50505050808060010191505061225e565b505b505b5050565b6000816000600360008373ffffffffffffffffffffffffffffffffffffffff1673ffffffffffffffffffffffffffffffffffffffff16815260200190815260200160002060010154116124d7576040517f08c379a00000000000000000000000000000000000000000000000000000000081526004016124ce90613269565b60405180910390fd5b826000600360008373ffffffffffffffffffffffffffffffffffffffff1673ffffffffffffffffffffffffffffffffffffffff168152602001908152602001600020600201541415801561256d575042600360008373ffffffffffffffffffffffffffffffffffffffff1673ffffffffffffffffffffffffffffffffffffffff1681526020019081526020016000206002015411155b6125ac576040517f08c379a00000000000000000000000000000000000000000000000000000000081526004016125a3906132fb565b60405180910390fd5b60004290506000600560008773ffffffffffffffffffffffffffffffffffffffff1673ffffffffffffffffffffffffffffffffffffffff16815260200190815260200160002060000154826126019190613189565b905060006301e1338060646126169190612bd7565b8261262089610400565b600360008b73ffffffffffffffffffffffffffffffffffffffff1673ffffffffffffffffffffffffffffffffffffffff1681526020019081526020016000206001015461266d9190612bd7565b6126779190612bd7565b61268191906131ec565b905080600560008973ffffffffffffffffffffffffffffffffffffffff1673ffffffffffffffffffffffffffffffffffffffff16815260200190815260200160002060010160008282546126d59190612e75565b925050819055506002600f6126ea9190612bd7565b836126f59190612e75565b600360008973ffffffffffffffffffffffffffffffffffffffff1673ffffffffffffffffffffffffffffffffffffffff16815260200190815260200160002060020181905550600560008873ffffffffffffffffffffffffffffffffffffffff1673ffffffffffffffffffffffffffffffffffffffff1681526020019081526020016000206001015495505050505050919050565b600033905090565b6000819050919050565b6127a581612792565b82525050565b60006020820190506127c0600083018461279c565b92915050565b600080fd5b600073ffffffffffffffffffffffffffffffffffffffff82169050919050565b60006127f6826127cb565b9050919050565b612806816127eb565b811461281157600080fd5b50565b600081359050612823816127fd565b92915050565b60006020828403121561283f5761283e6127c6565b5b600061284d84828501612814565b91505092915050565b600081519050919050565b600082825260208201905092915050565b6000819050602082019050919050565b61288b81612792565b82525050565b600061289d8383612882565b60208301905092915050565b6000602082019050919050565b60006128c182612856565b6128cb8185612861565b93506128d683612872565b8060005b838110156129075781516128ee8882612891565b97506128f9836128a9565b9250506001810190506128da565b5085935050505092915050565b6000602082019050818103600083015261292e81846128b6565b905092915050565b600060ff82169050919050565b61294c81612936565b82525050565b60006020820190506129676000830184612943565b92915050565b612976816127eb565b82525050565b6000602082019050612991600083018461296d565b92915050565b6129a081612792565b81146129ab57600080fd5b50565b6000813590506129bd81612997565b92915050565b6000602082840312156129d9576129d86127c6565b5b60006129e7848285016129ae565b91505092915050565b6129f981612936565b8114612a0457600080fd5b50565b600081359050612a16816129f0565b92915050565b600060208284031215612a3257612a316127c6565b5b6000612a4084828501612a07565b91505092915050565b7f4e487b7100000000000000000000000000000000000000000000000000000000600052601160045260246000fd5b6000612a8382612936565b9150612a8e83612936565b9250828201905060ff811115612aa757612aa6612a49565b5b92915050565b7f4e487b7100000000000000000000000000000000000000000000000000000000600052604160045260246000fd5b600081519050612aeb81612997565b92915050565b600060208284031215612b0757612b066127c6565b5b6000612b1584828501612adc565b91505092915050565b7f4e487b7100000000000000000000000000000000000000000000000000000000600052603260045260246000fd5b6000612b5882612792565b91507fffffffffffffffffffffffffffffffffffffffffffffffffffffffffffffffff8203612b8a57612b89612a49565b5b600182019050919050565b600081519050612ba4816127fd565b92915050565b600060208284031215612bc057612bbf6127c6565b5b6000612bce84828501612b95565b91505092915050565b6000612be282612792565b9150612bed83612792565b9250828202612bfb81612792565b91508282048414831517612c1257612c11612a49565b5b5092915050565b600081519050612c28816129f0565b92915050565b600060208284031215612c4457612c436127c6565b5b6000612c5284828501612c19565b91505092915050565b60008160011c9050919050565b6000808291508390505b6001851115612cb257808604811115612c8e57612c8d612a49565b5b6001851615612c9d5780820291505b8081029050612cab85612c5b565b9450612c72565b94509492505050565b600082612ccb5760019050612d87565b81612cd95760009050612d87565b8160018114612cef5760028114612cf957612d28565b6001915050612d87565b60ff841115612d0b57612d0a612a49565b5b8360020a915084821115612d2257612d21612a49565b5b50612d87565b5060208310610133831016604e8410600b8410161715612d5d5782820a905083811115612d5857612d57612a49565b5b612d87565b612d6a8484846001612c68565b92509050818404811115612d8157612d80612a49565b5b81810290505b9392505050565b6000612d9982612792565b9150612da483612936565b9250612dd17fffffffffffffffffffffffffffffffffffffffffffffffffffffffffffffffff8484612cbb565b905092915050565b6000606082019050612dee600083018661296d565b612dfb602083018561296d565b612e08604083018461279c565b949350505050565b60008115159050919050565b612e2581612e10565b8114612e3057600080fd5b50565b600081519050612e4281612e1c565b92915050565b600060208284031215612e5e57612e5d6127c6565b5b6000612e6c84828501612e33565b91505092915050565b6000612e8082612792565b9150612e8b83612792565b9250828201905080821115612ea357612ea2612a49565b5b92915050565b6000604082019050612ebe600083018561296d565b612ecb602083018461279c565b9392505050565b600082825260208201905092915050565b7f4150523a204465706f736974204e465420696e74657276616c206973206e6f7460008201527f2070617373656400000000000000000000000000000000000000000000000000602082015250565b6000612f3f602783612ed2565b9150612f4a82612ee3565b604082019050919050565b60006020820190508181036000830152612f6e81612f32565b9050919050565b7f4150523a20596f7520617265206e6f74206f776e6572206f662074686973207460008201527f6f6b656e00000000000000000000000000000000000000000000000000000000602082015250565b6000612fd1602483612ed2565b9150612fdc82612f75565b604082019050919050565b6000602082019050818103600083015261300081612fc4565b9050919050565b7f4150523a207468697320636f6e747261637420617265206e6f74206f776e657260008201527f206f66207468697320746f6b656e000000000000000000000000000000000000602082015250565b6000613063602e83612ed2565b915061306e82613007565b604082019050919050565b6000602082019050818103600083015261309281613056565b9050919050565b60006130a482612936565b91506130af83612936565b9250828203905060ff8111156130c8576130c7612a49565b5b92915050565b60006130d982612792565b9150600082036130ec576130eb612a49565b5b600182039050919050565b7f4150523a20576974686472617720696e74657276616c206973206e6f7420706160008201527f7373656400000000000000000000000000000000000000000000000000000000602082015250565b6000613153602483612ed2565b915061315e826130f7565b604082019050919050565b6000602082019050818103600083015261318281613146565b9050919050565b600061319482612792565b915061319f83612792565b92508282039050818111156131b7576131b6612a49565b5b92915050565b7f4e487b7100000000000000000000000000000000000000000000000000000000600052601260045260246000fd5b60006131f782612792565b915061320283612792565b925082613212576132116131bd565b5b828204905092915050565b7f41646472657373206973206e6f7420656e6f75676820746f6b656e0000000000600082015250565b6000613253601b83612ed2565b915061325e8261321d565b602082019050919050565b6000602082019050818103600083015261328281613246565b9050919050565b7f4150523a20436c61696d20696e74657276616c206973206e6f7420706173736560008201527f6400000000000000000000000000000000000000000000000000000000000000602082015250565b60006132e5602183612ed2565b91506132f082613289565b604082019050919050565b60006020820190508181036000830152613314816132d8565b905091905056fea264697066735822122025a092cdb2350088d926a9792de0c070ab3381eee6767e7d99c97d2e52a93adb64736f6c63430008180033",
  "linkReferences": {},
  "deployedLinkReferences": {}
}